:020000040000FA
:100000000C9435010C9466010C9466010C94660105
:100010000C9466010C9466010C9466010C946601C4
:100020000C9466010C9466010C9466010C946601B4
:100030000C9466010C9466010C9466010C946601A4
:100040000C9466010C9466010C9466010C94660194
:100050000C9466010C9466010C9466010C94981043
:100060000C9466010C946E100C9444100C94660170
:100070000C9466010C9466010C9466010C94660164
:100080000C9466010C9466010C9466010C94660154
:100090000C941A100C94F00F0C9466010C94E2105E
:1000A0000C9466010C9466010C9466010C94660134
:1000B0000C9466010C9466010C9466010C94660124
:1000C0000C9466010C9466010C9466010C94C60FA6
:1000D0000C949C0F0C9466010C9466010C946601C0
:1000E0000C9466010C947A030C947E030C948F019B
:1000F0000C94F8010C945C030C9482030C949F0202
:100100000C94E4010C9455030C944D030C940602DA
:100110000C9462030C948C030C9470030C9466038F
:100120000C9488030C94C1120C9451030C946C032E
:100130000C943B030C9474030C94D5010C9436037B
:100140000C9459030C945202000021002400270053
:100150002A002D00300033000101000004010701D6
:100160000A0100002200250028002B002E0031008B
:10017000340002010000050108010B0100000A0B18
:1001800002090C0D0E080703040100000000000026
:10019000000000000000000000000000000000005F
:1001A000000000000000000012111000000000001C
:1001B000000000000000000000000000000000003F
:1001C0000000000020002300260029002C002F0042
:1001D00032000001000003010601090105050505C3
:1001E000070508080808020202020A0A08080404AF
:1001F00004040101010101010101030303030303DD
:100200000303040707070C0C0C0C0C0C0C0C02026B
:10021000020206060606060606060B0B0B0B0B0B68
:100220000B0B0102102020080810204010204080F5
:1002300002010201080402010102040810204080AA
:100240008040201008040201800402018040201038
:100250000804020108040201010204081020408081
:100260000102040810204080C11211241FBECFEFEC
:10027000D1E2DEBFCDBF00E00CBF13E0A0E0B2E0F2
:10028000E2E4FFE200E00BBF02C007900D92A23350
:10029000B107D9F72FE0A2E3B3E001C01D92AB365E
:1002A000B207E1F711E0C5E3D1E000E006C0219715
:1002B0000109802FFE010E949717C433D10780E007
:1002C0000807A9F70E9440130C949F170C94000094
:1002D000FC01A089B18982E08C93A485B5851C922C
:1002E000A685B7858FEC8C93108EA489B58986E09E
:1002F0008C93A289B3898C9180618C93A289B389F4
:100300008C9188608C93A289B3898C9180688C933E
:100310000288F389E02D80818F7D80830895AF92DC
:10032000BF92CF92DF92EF92FF920F931F93CF93E2
:10033000DF936C017B018B01040F151FEB015E0144
:10034000AE18BF08C017D10759F06991D601ED91D9
:10035000FC910190F081E02DC6011995892B79F768
:10036000C501DF91CF911F910F91FF90EF90DF902A
:10037000CF90BF90AF900895FC01A089B1898C9176
:10038000A689B78982FD0FC09C91818D8F5F8F7385
:10039000228D821749F0A18DAE0FBF2FB11D5D9642
:1003A0009C93818F08958C910895FC01538D448D09
:1003B000252F30E0842F90E0821B930B541710F010
:1003C000CF96089501970895FC01918D828D98171D
:1003D00061F0A28DAE0FBF2FB11D5D968C91928DF5
:1003E0009F5F9F73928F90E008958FEF9FEF089526
:1003F000FC01918D828D981731F0828DE80FF11DEF
:10040000858D90E008958FEF9FEF0895FC01918D09
:10041000228D892F90E0805C9F4F821B91098F7302
:100420009927089580E79DE00E94060221E0892B2C
:1004300009F420E0822F08958DE09EE00E940602DC
:1004400021E0892B09F420E0822F08958AEA9EE0BA
:100450000E94060221E0892B09F420E0822F0895F2
:10046000FC01A48DA80FB92FB11DA35ABF4F2C9129
:10047000848D90E001968F739927848FA689B78920
:100480002C93A089B1898C91837080648C93938D17
:10049000848D981306C00288F389E02D80818F7DBA
:1004A00080830895EF92FF920F931F93CF93DF9372
:1004B000EC0181E0888F9B8D8C8D98131AC0E889A0
:1004C000F989808185FF15C09FB7F894EE89FF896F
:1004D0006083E889F98980818370806480839FBF0D
:1004E00081E090E0DF91CF911F910F91FF90EF900D
:1004F0000895F62E0B8D10E00F5F1F4F0F7311271D
:10050000E02E8C8D8E110CC00FB607FCFACFE88957
:10051000F989808185FFF5CFCE010E943002F1CFAD
:10052000EB8DEC0FFD2FF11DE35AFF4FF0829FB7CB
:10053000F8940B8FEA89FB8980818062CFCFCF93BB
:10054000DF93EC01888D8823B9F0AA89BB89E889FB
:10055000F9898C9185FD03C0808186FD0DC00FB6A1
:1005600007FCF7CF8C9185FFF2CF808185FFEDCF1F
:10057000CE010E943002E9CFDF91CF910895CF9351
:10058000DF93EC010E949F02EA89FB8980818F7EC4
:100590008083EA89FB898081877F8083EA89FB8960
:1005A00080818F778083EA89FB8980818F7D80833A
:1005B0008A8D898FDF91CF91089580E090E0892B1B
:1005C00029F00E94260281110E94000080E090E044
:1005D000892B29F00E941C0281110E94000080E0FA
:1005E00090E0892B29F00E94120281110E940000E4
:1005F00080E090E0892B49F080E090E0892B29F0A1
:100600000E94000081110C9400000895282F30E012
:10061000F901E458FE4F9491F901EE5DFD4F4491CC
:1006200024523E4FF9012491222309F435C0992325
:1006300011F191509231F8F4E92FF0E08827EC5D48
:10064000FC4F8F4F0C9497175503590336034D03F6
:1006500051033B035C03620366036C037003740382
:100660007A037E033B03820388038C03809180001E
:100670008F7780938000E22FF0E0EE0FFF1FEE599E
:10068000FE4FA591B4918FB7F894EC91611148C0D9
:1006900040954E234C938FBF0895809180008F7DAD
:1006A000E8CF80918000877FE4CF84B58F7784BDC9
:1006B000E2CF84B58F7DFBCF8091B0008F778093A0
:1006C000B000D9CF8091B0008F7DF9CF809190009C
:1006D0008F7780939000CFCF809190008F7DF9CF5E
:1006E00080919000877FF5CF8091A0008F778093D5
:1006F000A000C1CF8091A0008F7DF9CF8091A00094
:10070000877FF5CF809120018F7780932001B3CF31
:10071000809120018F7DF9CF80912001877FF5CFD7
:100720004E2BB8CFCF93DF9390E0FC01EE5DFD4FF1
:10073000249184529E4FFC0184918823D1F090E053
:10074000880F991FFC01E85BFE4FA591B491FC0155
:10075000EE59FE4FC591D49161110EC09FB7F89428
:100760008C91E22FE0958E238C932881E223E883FD
:100770009FBFDF91CF9108958FB7F894EC91E22B52
:10078000EC938FBFF6CF3FB7F89480910E0D909108
:100790000F0DA091100DB091110D26B5A89B05C0AD
:1007A0002F3F19F00196A11DB11D3FBFBA2FA92FF0
:1007B000982F8827BC01CD01620F711D811D911DED
:1007C00042E0660F771F881F991F4A95D1F7089559
:1007D0008F929F92AF92BF92CF92DF92EF92FF9251
:1007E0006B017C010E94C3034B015C01C114D10465
:1007F000E104F104B9F00E94C303681979098A0978
:100800009B09683E73408105910580F321E0C21A7F
:10081000D108E108F10888EE880E83E0981EA11C3B
:10082000B11CE4CFFF90EF90DF90CF90BF90AF90DE
:100830009F908F9008951F93CF93DF93C1E0C09353
:10084000C90C882399F1D091B8001091BA00809119
:10085000BC008A7B8093BC0060E084E10E940603B8
:1008600060E085E10E9406031092480DC093470D99
:100870001092420D61E084E10E94060361E085E18F
:100880000E9406038091B9008E7F8093B900809109
:10089000B9008D7F8093B90088E48093B80085E427
:1008A0008093BC001093BA00D093B800DF91CF9131
:1008B0001F9108952091EA0C260F3327331F213210
:1008C0003105ECF42091480DFC0190E080E02430EB
:1008D00069F082E00895A091EA0C2191AC014653A1
:1008E000534FA40FB52FB11D2C930196861798F383
:1008F0008091EA0C680F6093EA0C80E0089581E033
:1009000008950895E0914F0D80914E0DE81730F451
:10091000F0E0E05BF24F808190E008958FEF9FEF71
:10092000089590914F0D80914E0D2FEF3FEF981746
:1009300048F4E92FF0E0E05BF24F208130E09F5F68
:1009400090934F0DC901089580914E0D90914F0DD8
:10095000891B990B0895CF93DF93CB01EA01642F94
:100960000E945A04CE01DF91CF910895CF93DF9377
:100970001F92CDB7DEB7698361E0CE0101960E9478
:100980005A0481E090E00F90DF91CF91089590E0BC
:1009900080E00895FC0101900020E9F73197AF0154
:1009A000481B590BBC018AEA9EE00C948F018F9280
:1009B0009F92AF92BF920F931F93CF93DF93CDB7C8
:1009C000DEB7A1970FB6F894DEBF0FBECDBF19A258
:1009D000423008F44AE08E010F5D1F4F842E912CA7
:1009E000B12CA12CA50194010E94FB15E62FB901A1
:1009F000CA01EA30F4F4E05DD801EE938D01232BB7
:100A0000242B252B79F790E080E0109719F0CD0189
:100A10000E94CA04A1960FB6F894DEBF0FBECDBFE8
:100A2000DF91CF911F910F91BF90AF909F908F90CA
:100A30000895E95CE1CFCF93DF930E94CA04EC01F3
:100A40008AE192E00E94CA048C0F9D1FDF91CF9132
:100A500008954F925F926F927F928F929F92AF9282
:100A6000BF92CF92DF92EF92FF920F931F93CF939B
:100A70006B017C01742EAC019B010E947D178823C1
:100A800099F08DE192E0CF911F910F91FF90EF903F
:100A9000DF90CF90BF90AF909F908F907F906F909E
:100AA0005F904F900C94CA0446015701E894B7F840
:100AB0002FEF3FEF4FE75FE7C501B4010E947D17BD
:100AC00081110DC02FEF3FEF4FE75FE7C501B40184
:100AD0000E94D71418161CF481E292E0D4CF2FEFB5
:100AE0003FEF4FE75FE4C701B6010E9432171816C7
:100AF0001CF485E292E0C7CF2FEF3FEF4FE75FECAA
:100B0000C701B6010E94D71487FDF3CF20E030E083
:100B1000A901C701B6010E94D71410E000E087FFC9
:100B20000AC06DE28AEA9EE00E9452028C01F7FA46
:100B3000F094F7F8F094C0E060E070E080E09FE3AC
:100B40007C1641F020E030E040E251E40E948A1639
:100B5000CF5FF6CFA70196010E941E162B013C0124
:100B60000E9403174B015C014AE00E94D7047C01FC
:100B7000E00EF11ECC23C1F1C501B4010E94DC14CA
:100B80009B01AC01C301B2010E941D164B015C0127
:100B90006EE28AEA9EE00E945202E80EF91EC150FF
:100BA00018F120E030E040E251E4C501B4010E94B8
:100BB0003D152B013C010E9403174B01B12CA12CC8
:100BC0004AE0C501B4010E94D704E80EF91EC50130
:100BD000B4010E94DC149B01AC01C301B2010E946C
:100BE0001D164B015C01DBCFC701CF911F910F9107
:100BF000FF90EF90DF90CF90BF90AF909F908F903D
:100C00007F906F905F904F900895CF93DF9342E075
:100C10000E942905EC018AE192E00E94CA048C0F2F
:100C20009D1FDF91CF910895CF92DF92EF92FF92B7
:100C3000CF93DF936C01990FEE08FF08F7FE1FC0FA
:100C40006DE28AEA9EE00E945202EC016627772755
:100C5000CB016C197D098E099F094AE00E94D704D7
:100C6000C80FD91F8AE192E00E94CA048C0F9D1F11
:100C7000DF91CF91FF90EF90DF90CF9008954AE001
:100C8000C701B6010E94D704EC01ECCF2F923F922E
:100C90004F925F926F927F928F929F92AF92BF928C
:100CA000CF92DF92EF92FF920F931F93CF93DF9338
:100CB000CDB7DEB7EE970FB6F894DEBF0FBECDBF4F
:100CC0006C01A090470FB090480FA114B10409F433
:100CD00054C1F12CE12CF0E22F2E312CD5011496C9
:100CE0008D919C9181010E191F098017910708F4BD
:100CF0008C01F50180800E94C3032B013C0180918F
:100D0000480D811175C0902EF0E2F01710F4E0E26A
:100D10009E2E81E08093480D21E0C101801B910B44
:100D2000E816F90608F420E02093470D9FEF909312
:100D3000460D1092450D8FEF890D8093440DA1E073
:100D4000A093430D8091430D880C882A8092430D17
:100D50008091420D813009F096C01092420D0E94A0
:100D6000C3032B013C018091430D8093BB00809114
:100D70004A0D90914B0DA0914C0DB0914D0D892BCA
:100D80008A2B8B2BA1F00E94C30320914A0D309136
:100D90004B0D40914C0D50914D0D6419750986090C
:100DA0009709261737074807590708F442C080916A
:100DB000BC0083FDD8CFB5ECB093BC000E94C30348
:100DC0002B013C018091480D813009F460C0809175
:100DD000450D891510F49090450DA2E2BDE0E0E5C7
:100DE000FDE080E0891551F19D9191938F5FFACFDD
:100DF00080914A0D90914B0DA0914C0DB0914D0DED
:100E0000892B8A2B8B2B09F47ACF0E94C303209164
:100E10004A0D30914B0D40914C0D50914D0D641980
:100E2000750986099709261737074807590708F0F3
:100E300066CF8091490D0E941B04912C10924F0D9A
:100E400090924E0D9016110609F0A8C08824839444
:100E5000912C8C0E9D1E8E0C9F1C3401C401861992
:100E6000970980179107A8F5D50111968D919C914E
:100E7000DC01ED91FC910284F385E02D1995F401DC
:100E800081934F01EBCFE5EEE093BC0097CF8091CB
:100E90004A0D90914B0DA0914C0DB0914D0D892BA9
:100EA0008A2B8B2B09F48ECF0E94C30320914A0D0D
:100EB00030914B0D40914C0D50914D0D64197509B9
:100EC00086099709261737074807590708F07ACF88
:100ED000B0CFE00EF11EF0E2EF16F10408F4FECE02
:100EE0008981823409F05AC0FE013196CE014F96B5
:100EF0008F0130E020E0D8014D918D01240F311D8C
:100F00008A179B07C1F7BE016F5D7F4F828190E01A
:100F1000982F88274381840F911DDB018D939D932A
:100F2000BD013296E017F10789F78EE1FE01B19617
:100F3000D60101900D928A95E1F781E0F601448D8A
:100F4000558D4217530751F5EE960FB6F894DEBF54
:100F50000FBECDBFDF91CF911F910F91FF90EF900A
:100F6000DF90CF90BF90AF909F908F907F906F90C9
:100F70005F904F903F902F9008958091490F9091EE
:100F80004A0F009759F0DC01ED91FC910084F18546
:100F9000E02D199500E210E0892B29F480E0D4CFF0
:100FA00001501109A1F18091490F90914A0FDC0184
:100FB000ED91FC910484F585E02D1995823491051D
:100FC00031F18091490F90914A0FDC01ED91FC9134
:100FD0000484F585E02D19954697C9F08091490F55
:100FE00090914A0FDC01ED91FC910284F385E02D94
:100FF00019958091490F90914A0FDC01ED91FC9178
:101000000084F185E02D1995892B51F6C7CF809189
:10101000490F90914A0FDC01ED91FC910484F58514
:10102000E02D19958234910509F081C08091490F16
:1010300090914A0FDC01ED91FC910484F585E02D3F
:101040001995712C60E2E62EF12C469729F477244D
:10105000739454E1E52EF12C8091490F90914A0F41
:10106000DC01ED91FC910084F185E02D19958E1540
:101070009F0508F493CF0091490F10914A0FFE018C
:1010800031965F014F012FB7F89480911E0D90911A
:101090001F0DA091200DB091210D2FBFF801808769
:1010A0009187A287B387D801ED91FC910284F385E3
:1010B000E02DC801199597FF54C02FB7F89480917F
:1010C0001E0D90911F0DA091200DB091210D2FBFED
:1010D000F8014085518562857385841B950BA60BAD
:1010E000B70B448155816681778184179507A607E0
:1010F000B707C8F28981772009F4F2CE863109F06A
:101100004DCF8A81813109F049CF8B8130E020E0D9
:101110008B3009F043CF832F90E08E159F0560F54B
:101120008A0D9B1DFC018081280F3F5FF4CF8091C9
:10113000490F90914A0FDC01ED91FC910484F585F3
:10114000E02D1995469709F471CF8091490F909140
:101150004A0FDC01ED91FC910284F385E02D199595
:101160001DCFD4018D934D01CD018A199B098E1598
:101170009F0508F488CFBECF8E819F81982789274D
:101180009827F60193878287158E148E81E022239B
:1011900009F4DACE03CF2F923F924F925F926F9273
:1011A0007F928F929F92AF92BF92CF92DF92EF92F7
:1011B000FF920F931F93CF93DF93CDB7DEB7CA563D
:1011C000D1090FB6F894DEBF0FBECDBF8091C70C1A
:1011D0009091C80CCD9709F04FC383ED9BE00E941E
:1011E00047126BA37CA38DA39EA3AB01BC0183ED2F
:1011F0009BE00E947D124B015C018DE49CE00E940B
:1012000047126F8F78A389A39AA3AB01BC018DE429
:101210009CE00E947D126B017C01A5019401C50137
:10122000B4010E943D154B015C01A7019601C70165
:10123000B6010E943D159B01AC01C501B4010E949D
:101240001E1620E030E040E05FE30E943D150E9462
:101250003D174B015C012EEC3AE649E35EE30E9448
:101260003D152B013C012F8D38A149A15AA16BA13D
:101270007CA18DA19EA10E941D166FA378A789A7AE
:101280009AA7A30192010E941D166B017C012FA158
:1012900038A549A55AA5C301B2010E941E162B010B
:1012A0003C0120E030E0A901C701B6010E94D7143B
:1012B00087FF09C020E030E0A901C301B2010E940C
:1012C000D71487FD14C020E030E0A901C701B601A2
:1012D0000E94321718160CF04CC420E030E0A9012F
:1012E000C301B2010E94321718160CF042C420E06C
:1012F00030E040E450E4C501B40190580E943D152F
:101300009B01AC01C301B2010E94D71487FD11C03B
:1013100020E030E040E450E4C501B4010E943D15F6
:101320009B01AC01C701B6010E94321718160CF0E0
:10133000DFC389E292E00E941B0583ED9BE00E94DF
:101340004712C0900402D0900502E0900602F0908F
:101350000702A70196010E943D156F8F78A389A30C
:101360009AA38FED9AE00E9447129B01AC01C7013E
:10137000B6010E943D156BA37CA38DA39EA38BEEAB
:1013800099E00E9447129B01AC01C701B6010E947F
:101390003D156FA378A789A79AA787EF98E00E94C9
:1013A00047129B01AC01C701B6010E943D156BA716
:1013B0007CA78DA79EA783E098E00E9447129B011F
:1013C000AC01C701B6010E943D156FA778AB89AB90
:1013D0009AAB8FE097E00E9447129B01AC01C701D6
:1013E000B6010E943D156BAB7CAB8DAB9EAB8BE128
:1013F00096E00E9447129B01AC01C701B6010E9412
:101400003D156FAB78AF89AF9AAF87E295E00E9448
:1014100047129B01AC01C701B6010E943D156BAF9D
:101420007CAF8DAF9EAF83E394E00E9447129B0197
:10143000AC01C701B6010E943D152B013C014F8D47
:1014400058A169A17AA183ED9BE00E947D122396A9
:101450006CAF7DAF8EAF9FAF23974BA15CA16DA109
:101460007EA18FED9AE00E947D1227966CAF7DAF32
:101470008EAF9FAF27974FA158A569A57AA58BEE90
:1014800099E00E947D122B966CAF7DAF8EAF9FAF1F
:101490002B974BA55CA56DA57EA587EF98E00E94D4
:1014A0007D122F966CAF7DAF8EAF9FAF2F974FA55C
:1014B00058A969A97AA983E098E00E947D126396F1
:1014C0006CAF7DAF8EAF9FAF63974BA95CA96DA941
:1014D0007EA98FE097E00E947D1267966CAF7DAF8A
:1014E0008EAF9FAF67974FA958AD69AD7AAD8BE1CD
:1014F00096E00E947D126B966CAF7DAF8EAF9FAF72
:101500006B974BAD5CAD6DAD7EAD87E295E00E9413
:101510007D126F966CAF7DAF8EAF9FAF6F97B301AB
:10152000A20183E394E00E947D12A3966CAF7DAF8D
:101530008EAF9FAFA3978CEA93E00E9447124B01B6
:101540005C0182E393E00E9447126B017C01B501CC
:10155000A4018CEA93E00E947D12A7966CAF7DAF48
:101560008EAF9FAFA797B701A60182E393E00E94D9
:101570007D12AB966CAF7DAF8EAF9FAFAB9784E61D
:1015800092E00E941B058DE692E00E9478126F8D1A
:1015900078A189A19AA10E947A128AE792E00E941A
:1015A000781223966CAD7DAD8EAD9FAD23970E94D2
:1015B00005068DE792E00E9478126BA17CA18DA1B7
:1015C0009EA10E947A128AE792E00E9478122796E2
:1015D0006CAD7DAD8EAD9FAD27970E9405068AE864
:1015E00092E00E9478126FA178A589A59AA50E9421
:1015F0007A128AE792E00E9478122B966CAD7DAD4C
:101600008EAD9FAD2B970E94050687E992E00E9460
:1016100078126BA57CA58DA59EA50E947A128AE7FB
:1016200092E00E9478122F966CAD7DAD8EAD9FAD8D
:101630002F970E94050684EA92E00E9478126FA517
:1016400078A989A99AA90E947A128AE792E00E9451
:10165000781263966CAD7DAD8EAD9FAD63970E94A1
:10166000050681EB92E00E9478126BA97CA98DA9F6
:101670009EA90E947A128AE792E00E9478126796E9
:101680006CAD7DAD8EAD9FAD67970E9405068DEB6D
:1016900092E00E9478126FA978AD89AD9AAD0E9450
:1016A0007A128AE792E00E9478126B966CAD7DAD5B
:1016B0008EAD9FAD6B970E94050686EC92E00E946E
:1016C00078126BAD7CAD8DAD9EAD0E947A128AE72B
:1016D00092E00E9478126F966CAD7DAD8EAD9FAD9D
:1016E0006F970E9405068FEC92E00E947812C3016A
:1016F000B2010E947A128AE792E00E947812A396C1
:101700006CAD7DAD8EAD9FADA3970E94050687EDB4
:1017100092E00E947812C501B4010E947A128AE711
:1017200092E00E947812A7966CAD7DAD8EAD9FAD14
:10173000A7970E94050685EE92E00E947812C701E5
:10174000B6010E947A128AE792E00E947812AB9664
:101750006CAD7DAD8EAD9FADAB970E94050623EDC0
:101760003BE0AFEDEA2EAAE0FA2E0BEE19E0A7EF70
:10177000B8E083E098E098A38F8F6FE077E04BE1CB
:1017800056E087E2A82E85E0B82E93E3892E94E0F8
:10179000992EE7EC2E2EECE03E2EECEA6E2EE3E0E6
:1017A0007E2EF2E34F2EF3E05F2E90E080E06901A1
:1017B000C80ED91EF601118210826701C80ED91E0B
:1017C000F601118210826801C80ED91EF60111823D
:1017D00010826D01C80ED91EF60111821082CF8CC5
:1017E000D8A0C80ED91EF601118210826B01C80E56
:1017F000D91EF601118210826A01C80ED91EF601A7
:10180000118210826501C80ED91EF6011182108264
:101810006401C80ED91EF60111821082F3011192E3
:1018200011923F01F201119211922F0102968A3713
:10183000910509F0BCCF26583F4FFAE7EF0EF11C97
:1018400006581F4FA658BF4F8F8D98A186589F4F9F
:1018500098A38F8F66587F4F46585F4F9AE7A90E1F
:10186000B11CEAE78E0E911C2216330609F095CFC3
:101870001092C80C1092C70C8DE09EE00E94680187
:101880008DE09EE090934A0F8093490F6EEE72E0D8
:1018900080E090E00E94E80380EF92E00E941B0548
:1018A000CE0101960E94460681110AC081E093E0B4
:1018B0000E941B0564E670E080E090E00E94E8036F
:1018C000C0900402D0900502E0900602F09007025A
:1018D0000091C70C1091C80C000F111FC8018D5248
:1018E000944F5C016F85788990E080E00E94DC1461
:1018F000A70196010E943D150E94FC16F501718317
:101900006083C8018152954F5C0169897A8990E0B2
:1019100080E00E94DC14A70196010E943D150E9400
:10192000FC16F50171836083C8018551964F5C01F7
:101930006B897C8990E080E00E94DC14A70196010D
:101940000E943D150E94FC16F50171836083C80159
:101950008950974F5C016D897E8990E080E00E94FC
:10196000DC14A70196010E943D150E94FC16F501AA
:1019700071836083C8018D5F974F5C016F89788D9B
:1019800090E080E00E94DC14A70196010E943D15C2
:101990000E94FC16F50171836083C801815F984F36
:1019A0005C01698D7A8D90E080E00E94DC14A701D3
:1019B00096010E943D150E94FC16F501718360831B
:1019C000C801855E994F5C0169857A8590E080E069
:1019D0000E94DC14A70196010E943D150E94FC168E
:1019E000F50171836083C801895D9A4F5C016B8545
:1019F0007C8590E080E00E94DC14A70196010E94A3
:101A00003D150E94FC16F50171836083C8018D5C51
:101A10009B4F5C016D857E8590E080E00E94DC1428
:101A2000A70196010E943D150E94FC16F5017183E5
:101A300060836EEE72E080E090E00E94E8038DE04B
:101A40009EE00E94BF0262E370E080E090E00E94AE
:101A5000E803E9E2F2E0F490E3EEF1E0E491F0E093
:101A6000EE0FFF1FEE53FE4FC590D49010922E0440
:101A700010922F041092300410923104109232040C
:101A800061E087E00E94920360E087E00E94060325
:101A900062E170E080E090E00E94E80361E087E0AE
:101AA0000E9406038BE990E00197F1F760E087E080
:101AB0000E94920380E991E0F60120812F2109F034
:101AC0006FC00197C9F780E090ECA9E7B4EC809370
:101AD000260490932704A0932804B09329048093AC
:101AE0002A0490932B04A0932C04B0932D04BCC023
:101AF00080E492E00E941B052BA13CA14DA15EA1B8
:101B00006F8D78A189A19AA10E941E1620E030E075
:101B100040E05FE30E943D150E94FC16072E000C7A
:101B2000880B990B0E94DE146B017C012BA13CA158
:101B30004DA15EA10E948A16609304027093050273
:101B400080930602909307020E9405062F8D38A10C
:101B500049A15AA1C701B6010E948A1660930002EA
:101B60007093010280930202909303020E94050683
:101B7000E4CB83E592E00E941B0560910402709122
:101B8000050280910602909107020E94050660916D
:101B90000002709101028091020290910302E6CF4F
:101BA00080E991E0F60120812F2119F00197D1F70A
:101BB0008ACF28E2B22E30E8E32EA12C80E991E012
:101BC000F60120812F2119F40197D1F77CCF0E94D3
:101BD000C3032B013C0180E991E0F60120812F2114
:101BE00019F00197D1F76FCF0E94C30364197509EB
:101BF00086099709693271058105910538F0EA2D4A
:101C0000F0E0EA5DFB4F80858E298087E69419F429
:101C1000A39490E8E92EBA94B110D0CF61E087E0A8
:101C20000E94920361E087E00E94060360912E0407
:101C300070E090E080E00E94DC14609326047093D2
:101C4000270480932804909329046091300470E065
:101C500090E080E00E94DC1460932A0470932B04CF
:101C600080932C0490932D04C80184559C4F7C01D3
:101C700060912A0470912B0480912C0490912D0482
:101C80000E94FC16F701718360830E5C1C4F60910B
:101C900026047091270480912804909129040E94C1
:101CA000FC16F8017183608362E370E080E090E0ED
:101CB0000E94E80380E79DE00E94680180E79DE0C4
:101CC00090934A0F8093490F6EEE72E080E090E0AF
:101CD0000E94E80382E193E00E941B05CE01019679
:101CE0000E94460681110AC081E093E00E941B0514
:101CF00064E670E080E090E00E94E803C09000029B
:101D0000D0900102E0900202F0900302A090C70C74
:101D1000B090C80C8501035C1F4F000F111FC80154
:101D20008D52944F4C016F85788990E080E00E943D
:101D3000DC14A70196010E943D150E94FC16F401D7
:101D400071836083C8018152954F4C0169897A89FA
:101D500090E080E00E94DC14A70196010E943D15EE
:101D60000E94FC16F40171836083C8018551964F6F
:101D70004C016B897C8990E080E00E94DC14A70113
:101D800096010E943D150E94FC16F4017183608348
:101D9000C8018950974F4C016D897E8990E080E0A1
:101DA0000E94DC14A70196010E943D150E94FC16BA
:101DB000F40171836083C8018D5F974F4C016F8977
:101DC000788D90E080E00E94DC14A70196010E94CB
:101DD0003D150E94FC16F40171836083C801815F88
:101DE000984F4C01698D7A8D90E080E00E94DC1460
:101DF000A70196010E943D150E94FC16F401718313
:101E00006083C801855E994F4C0169857A8590E0B1
:101E100080E00E94DC14A70196010E943D150E94FB
:101E2000FC16F40171836083C801895D9A4F4C01EF
:101E30006B857C8590E080E00E94DC14A701960110
:101E40000E943D150E94FC16F401718360830D5CB5
:101E50001B4F6D857E8590E080E00E94DC14A70119
:101E600096010E943D150E94FC16F8017183608363
:101E70006EEE72E080E090E00E94E80380E79DE073
:101E80000E94BF02C50101969093C80C8093C70CB5
:101E90000E941406C659DF4F0FB6F894DEBF0FBE7E
:101EA000CDBFDF91CF911F910F91FF90EF90DF9009
:101EB000CF90BF90AF909F908F907F906F905F90EA
:101EC0004F903F902F90089585ED8093BC008091B6
:101ED0004A0D90914B0DA0914C0DB0914D0D079670
:101EE000A11DB11D23E0B695A795979587952A95D5
:101EF000D1F72091BC0024FD03C01092480D089535
:101F000040914A0D50914B0D60914C0D70914D0DCB
:101F1000452B462B472B69F30097A105B10541F0EE
:101F20002AE22A95F1F700C00197A109B109E1CF92
:101F30008091490D0C941B041F920F920FB60F92C3
:101F400011240BB60F922F933F934F935F936F9390
:101F50007F938F939F93AF93BF93EF93FF9380E70C
:101F60009DE00E943002FF91EF91BF91AF919F9150
:101F70008F917F916F915F914F913F912F910F9032
:101F80000BBE0F900FBE0F901F9018951F920F92CF
:101F90000FB60F9211240BB60F922F933F934F93CE
:101FA0005F936F937F938F939F93AF93BF93EF93C1
:101FB000FF9380E79DE00E94BC01FF91EF91BF91EC
:101FC000AF919F918F917F916F915F914F913F91D1
:101FD0002F910F900BBE0F900FBE0F901F90189572
:101FE0001F920F920FB60F9211240BB60F922F93E0
:101FF0003F934F935F936F937F938F939F93AF9391
:10200000BF93EF93FF938DE09EE00E943002FF911B
:10201000EF91BF91AF919F918F917F916F915F9160
:102020004F913F912F910F900BBE0F900FBE0F90CD
:102030001F9018951F920F920FB60F9211240BB696
:102040000F922F933F934F935F936F937F938F9351
:102050009F93AF93BF93EF93FF938DE09EE00E9419
:10206000BC01FF91EF91BF91AF919F918F917F91B3
:102070006F915F914F913F912F910F900BBE0F90F9
:102080000FBE0F901F9018951F920F920FB60F92D0
:1020900011240BB60F922F933F934F935F936F933F
:1020A0007F938F939F93AF93BF93EF93FF938AEAAE
:1020B0009EE00E943002FF91EF91BF91AF919F91FE
:1020C0008F917F916F915F914F913F912F910F90E1
:1020D0000BBE0F900FBE0F901F9018951F920F927E
:1020E0000FB60F9211240BB60F922F933F934F937D
:1020F0005F936F937F938F939F93AF93BF93EF9370
:10210000FF938AEA9EE00E94BC01FF91EF91BF918C
:10211000AF919F918F917F916F915F914F913F917F
:102120002F910F900BBE0F900FBE0F901F90189520
:102130001F920F920FB60F9211242F933F938F93FC
:102140009F93AF93BF9380911E0D90911F0DA0910F
:10215000200DB091210D30910D0D23E0230F2D376F
:1021600058F50196A11DB11D20930D0D80931E0DF4
:1021700090931F0DA093200DB093210D80910E0D13
:1021800090910F0DA091100DB091110D0196A11D10
:10219000B11D80930E0D90930F0DA093100DB09371
:1021A000110DBF91AF919F918F913F912F910F9002
:1021B0000FBE0F901F90189526E8230F0296A11DC1
:1021C000B11DD2CF1F920F920FB60F9211240BB6F2
:1021D0000F922F933F934F935F936F937F938F93C0
:1021E0009F93AF93BF93EF93FF938091B900887F44
:1021F000803609F44DC008F040C0883209F4A7C009
:1022000028F5803109F49BC0C8F4882309F4F7C08D
:10221000883009F494C0FF91EF91BF91AF919F91E5
:102220008F917F916F915F914F913F912F910F907F
:102230000BBE0F900FBE0F901F901895883109F4B8
:1022400086C0803241F78093460D14C0803409F473
:102250009BC040F48033B9F38833E9F68093460D90
:1022600085ECAEC0803509F483C0883509F494C08C
:10227000883489F60E94640FCECF883909F48AC069
:1022800038F5883729F050F4883611F0803719F680
:1022900083E08093480D10920C0D55C0883809F4E6
:1022A00079C0803919F0803809F0B5CF80910C0DD4
:1022B000803208F06FC0E0910C0D81E08E0F8093AA
:1022C0000C0D8091BB00F0E0E451F34F80833BC0E4
:1022D000803B39F0D0F4803A09F477C0883A09F0AD
:1022E0009ACF84E08093480D1092EB0C1092EA0C88
:1022F000F0E0E0E019958091EA0C81110FC081E0D7
:102300008093EA0C1092CA0C09C0803C09F4A8CF53
:10231000883C09F4A5CF883B09F07DCFE091EB0C18
:1023200081E08E0F8093EB0CF0E0E653F34F808159
:102330008093BB009091EB0C8091EA0C29C08091B6
:10234000430D8093BB0085EC8093BC0064CF9091DB
:10235000450D8091440D981758F5E091450D81E0A9
:102360008E0F8093450DF0E0EE5DF24F8081E9CF56
:10237000E091450D81E08E0F8093450D8091BB006B
:10238000F0E0EE5DF24F80839091450D8091440D19
:102390009817C8F285E8D8CFE091450D81E08E0FFF
:1023A0008093450D8091BB00F0E0EE5DF24F80839D
:1023B0008091470D81115ECF81E08093420D84EAC8
:1023C0008093BC001092480D26CF85EC8093BC0012
:1023D0001092480D80910C0D803230F4E0910C0D7C
:1023E000F0E0E451F34F108260910C0D70E08CEE40
:1023F0009CE0F0E0E0E0199510920C0D0CCF1092EB
:10240000460D38CFCF92DF92EF92FF920F931F933A
:10241000E82FF92F05C0015011092109310961F197
:10242000908196239417B9F305C001501109210931
:10243000310911F1908196239413F7CFC12CD12C3F
:10244000E12CF12C0AC08FEFC81AD80AE80AF80A62
:102450000C151D052E053F0579F080818623841714
:1024600091F36C2D7D2D8E2D9F2D1F910F91FF903F
:10247000EF90DF90CF90089560E070E080E090E012
:102480001F910F91FF90EF90DF90CF900895CF9222
:10249000DF92EF92FF920F931F93CF93DF93EC01A4
:1024A0008C0106581F4FC12CD12C7601699179916E
:1024B000072E000C880B990B0E94DE149B01AC01C7
:1024C000C701B6010E941E166B017C010C171D0787
:1024D00069F720E030E044E752E40E948A16DF9179
:1024E000CF911F910F91FF90EF90DF90CF900895C3
:1024F0000C94CA0442E00C9429058F929F92AF92EB
:10250000BF92CF92DF92EF92FF920F931F93CF93E0
:10251000DF934A015B01EC018C0106581F4FC12C6F
:10252000D12C760169917991072E000C880B990BBB
:102530000E94DE14A50194010E941D169B01AC01AE
:102540000E943D159B01AC01C701B6010E941E16F9
:102550006B017C010C171D0729F720E030E044E7F0
:1025600052E40E948A16DF91CF911F910F91FF9044
:10257000EF90DF90CF90BF90AF909F908F900C9492
:102580003D17E0E7FDE01382128248EE53E060E081
:1025900070E044835583668377838CE092E0918377
:1025A000808325ED30E03587248724ED30E03787C0
:1025B000268720ED30E0318B208B21ED30E0338B0E
:1025C000228B22ED30E0358B248B26ED30E0378BEB
:1025D000268B118E128E138E148EEDE0FEE0138288
:1025E00012824483558366837783918380832DECA5
:1025F00030E0358724872CEC30E03787268728ECBD
:1026000030E0318B208B29EC30E0338B228B2AECAD
:1026100030E0358B248B2EEC30E0378B268B118EFF
:10262000128E138E148EEAEAFEE013821282448325
:102630005583668377839183808385EC90E09587CB
:10264000848784EC90E09787868780EC90E0918B7C
:10265000808B81EC90E0938B828B82EC90E0958B69
:10266000848B86EC90E0978B868B118E128E138E66
:10267000148EE7E4FFE01182108213821282089523
:10268000789484B5826084BD84B5816084BD85B54D
:10269000826085BD85B5816085BD80916E00816059
:1026A00080936E00109281008091810082608093FF
:1026B0008100809181008160809381008091800001
:1026C0008160809380008091B10084608093B1002C
:1026D0008091B00081608093B00080919100826011
:1026E000809391008091910081608093910080910E
:1026F00090008160809390008091A100826080931F
:10270000A1008091A10081608093A1008091A00030
:1027100081608093A00080912101826080932101DB
:10272000809121018160809321018091200181604D
:102730008093200180917A00846080937A00809158
:102740007A00826080937A0080917A008160809321
:102750007A0080917A00806880937A001092C1009C
:102760008AEA9EE00E94680161E088E00E9492038C
:1027700060E089E00E94920383E293E00E941B05DF
:1027800084EF91E00E94140685E090E00E94140618
:102790006AE077ED83EA9CE30E94050683E293E01A
:1027A0000E941B05CFE0D0E043E2E42EF12C5BE277
:1027B000C52E52E0D52E65EEA62E61E0B62E8FB75F
:1027C000F89440901E0D50901F0D6090200D709059
:1027D000210D8FBF60E088E00E940603CE010197C3
:1027E000F1F761E088E00E940603C7010197F1F765
:1027F00060E088E00E94060360E089E00E949203A6
:10280000F6016491F5018491E82FF0E0EE0FFF1FCF
:10281000EE53FE4F8591949100E412E42FE030E0F6
:10282000462F0E940212611571058105910529F05C
:102830006F5F7F4F8F4F9F4F9F70959587957795CF
:1028400067950E94DE1421E73DE34AE350E40E94CD
:102850008A160E94FC16685E734081099109693EE0
:1028600073408105910508F061C08091120D90912F
:10287000130D01969093130D8093120D03970CF492
:1028800059C087E293E00E941B051092130D10922D
:10289000120D40921A0D50921B0D60921C0D7092F9
:1028A0001D0D1092190D1092180D1092170D109207
:1028B000160D1092150D1092140D64EF71E080E06A
:1028C00090E00E94E80380911A0D90911B0DA09159
:1028D0001C0DB0911D0DA3019201281B390B4A0B51
:1028E0005B0BDA01C9018C383AE09307A105B10509
:1028F000D0F02091180D3091190D12161306FCF02E
:102900000E94CB088091180D9091190D019690931B
:10291000190D8093180D40921A0D50921B0D609264
:102920001C0D70921D0D0E94DD0249CF1092130DF7
:102930001092120D62E370E080E090E0C2CF883622
:1029400042E49407A105B10570F32091160D309172
:10295000170D2630310564F40E94CB088091160DC6
:102960009091170D01969093170D8093160DD3CF6C
:1029700084359F46A105B105B0F28091140D909168
:10298000150D01969093150D8093140D40921A0D1C
:1029900050921B0D60921C0D70921D0D029719F63E
:1029A0000E94CB081092150D1092140DB4CF0E9406
:1029B000191508F481E00895E89409C097FB3EF4E6
:1029C00090958095709561957F4F8F4F9F4F99237C
:1029D000A9F0F92F96E9BB279395F69587957795FA
:1029E0006795B795F111F8CFFAF4BB0F11F460FFBA
:1029F0001BC06F5F7F4F8F4F9F4F16C0882311F012
:102A000096E911C0772321F09EE8872F762F05C025
:102A1000662371F096E8862F70E060E02AF09A95C0
:102A2000660F771F881FDAF7880F9695879597F9B5
:102A30000895990F0008550FAA0BE0E8FEEF16164F
:102A40001706E807F907C0F012161306E407F507A2
:102A500098F0621B730B840B950B39F40A2661F016
:102A6000232B242B252B21F408950A2609F4A140B9
:102A7000A6958FEF811D811D08950E9450150C941D
:102A8000C1150E94B31538F00E94BA1520F09523A5
:102A900011F00C94AA150C94B01511240C94F51592
:102AA0000E94D21570F3959FC1F3950F50E0551F0A
:102AB000629FF001729FBB27F00DB11D639FAA2793
:102AC000F00DB11DAA1F649F6627B00DA11D661FE2
:102AD000829F2227B00DA11D621F739FB00DA11D03
:102AE000621F839FA00D611D221F749F3327A00DBD
:102AF000611D231F849F600D211D822F762F6A2F59
:102B000011249F5750409AF0F1F088234AF0EE0FBD
:102B1000FF1FBB1F661F771F881F91505040A9F7EA
:102B20009E3F510580F00C94AA150C94F5155F3F5B
:102B3000E4F3983ED4F3869577956795B795F79526
:102B4000E7959F5FC1F7FE2B880F911D969587959E
:102B500097F9089597F99F6780E870E060E008951D
:102B60009FEF80EC089500240A94161617061806A5
:102B70000906089500240A94121613061406050681
:102B80000895092E0394000C11F4882352F0BB0F12
:102B900040F4BF2B11F460FF04C06F5F7F4F8F4F75
:102BA0009F4F089557FD9058440F551F59F05F3FB0
:102BB00071F04795880F97FB991F61F09F3F79F05F
:102BC00087950895121613061406551FF2CF4695E1
:102BD000F1DF08C0161617061806991FF1CF869563
:102BE0007105610508940895E894BB276627772747
:102BF000CB0197F90895A1E21A2EAA1BBB1BFD0178
:102C00000DC0AA1FBB1FEE1FFF1FA217B307E407CB
:102C1000F50720F0A21BB30BE40BF50B661F771F23
:102C2000881F991F1A9469F7609570958095909503
:102C30009B01AC01BD01CF0108955058BB27AA27C5
:102C40000E9435160C94C1150E94B31538F00E94ED
:102C5000BA1520F039F49F3F19F426F40C94B015FE
:102C60000EF4E095E7FB0C94AA15E92F0E94D2150B
:102C700058F3BA17620773078407950720F079F4B1
:102C8000A6F50C94F4150EF4E0950B2EBA2FA02D9A
:102C90000B01B90190010C01CA01A0011124FF2709
:102CA000591B99F0593F50F4503E68F11A16F04004
:102CB000A22F232F342F4427585FF3CF4695379503
:102CC0002795A795F0405395C9F77EF41F16BA0BC8
:102CD000620B730B840BBAF09150A1F0FF0FBB1F76
:102CE000661F771F881FC2F70EC0BA0F621F731FBF
:102CF000841F48F4879577956795B795F7959E3F1C
:102D000008F0B0CF9395880F08F09927EE0F9795AC
:102D1000879508950E949E160C94C1150E94BA15BD
:102D200058F00E94B31540F029F45F3F29F00C944D
:102D3000AA1551110C94F5150C94B0150E94D215DA
:102D400068F39923B1F3552391F3951B550BBB27DA
:102D5000AA2762177307840738F09F5F5F4F220F1F
:102D6000331F441FAA1FA9F335D00E2E3AF0E0E816
:102D700032D091505040E695001CCAF72BD0FE2F60
:102D800029D0660F771F881FBB1F261737074807F4
:102D9000AB07B0E809F0BB0B802DBF01FF279358AC
:102DA0005F4F3AF09E3F510578F00C94AA150C94B1
:102DB000F5155F3FE4F3983ED4F3869577956795D4
:102DC000B795F7959F5FC9F7880F911D96958795E1
:102DD00097F90895E1E0660F771F881FBB1F621700
:102DE00073078407BA0720F0621B730B840BBA0BBE
:102DF000EE1F88F7E09508950E9403176894B111BB
:102E00000C94F51508950E94DA1588F09F5798F0F4
:102E1000B92F9927B751B0F0E1F0660F771F881FDF
:102E2000991F1AF0BA95C9F714C0B13091F00E94F9
:102E3000F415B1E008950C94F415672F782F8827C6
:102E4000B85F39F0B93FCCF3869577956795B39520
:102E5000D9F73EF490958095709561957F4F8F4F8F
:102E60009F4F08950E94191508F48FEF089519F4E3
:102E700016F40C94B0150C9482170E94DA15B8F36E
:102E80009923C9F3B6F39F57550B87FF0E949017FC
:102E90000024A0E640EA900180585695979528F4C2
:102EA000805C660F771F881F20F0261737074807BA
:102EB00030F4621B730B840B202931294A2BA69511
:102EC00017940794202531254A2758F7660F771F56
:102ED000881F20F026173707480730F4620B730B62
:102EE000840B200D311D411DA09581F7B901842F60
:102EF0009158880F9695879508950E941915880B0B
:102F0000990B08959F3F31F0915020F48795779564
:102F10006795B795880F911D9695879597F90895B0
:102F200091505040660F771F881FD2F70895EE0F1B
:102F3000FF1F881F8BBF0790F691E02D1994F8941E
:102F4000FFCF0000803F0000803F000000005202E1
:102F50008F01D5019F020602E401F8010D0A006EFF
:102F6000616E00696E66006F76660054696D65205B
:102F7000746F207265706C6163652073656E736F2A
:102F8000720053656E736F72732063616C69627255
:102F90006174656400416C6C2073656E736F72734D
:102FA00020676F6F640053756D6D6172793A003000
:102FB0002E33756D2F302E314C3A20003B200030DF
:102FC0002E35756D2F302E314C3A2000312E307554
:102FD0006D2F302E314C3A2000322E35756D2F304A
:102FE0002E314C3A2000352E30756D2F302E314C5D
:102FF0003A20003130756D2F302E314C3A20005080
:103000004D20312E303A2000504D20322E353A20BE
:1030100000504D2031303A200054656D706572616A
:10302000747572653A200048756D69646974793AFF
:103030002000504D53353030332073656E736F72FE
:10304000203100504D64617461206E6F7420666F92
:10305000756E6400504D53353030332073656E7398
:103060006F722032002A2A2A006175746F446574D9
:043070006563740020
:020000040003F7
:10E000000D9489F10D94B2F10D94B2F10D94B2F129
:10E010000D94B2F10D94B2F10D94B2F10D94B2F1F0
:10E020000D94B2F10D94B2F10D94B2F10D94B2F1E0
:10E030000D94B2F10D94B2F10D94B2F10D94B2F1D0
:10E040000D94B2F10D94B2F10D94B2F10D94B2F1C0
:10E050000D94B2F10D94B2F10D94B2F10D94B2F1B0
:10E060000D94B2F10D94B2F10D94B2F10D94B2F1A0
:10E070000D94B2F10D94B2F10D94B2F10D94B2F190
:10E080000D94B2F10D94B2F10D94B2F10D94B2F180
:10E090000D94B2F10D94B2F10D94B2F10D94B2F170
:10E0A0000D94B2F10D94B2F10D94B2F10D94B2F160
:10E0B0000D94B2F10D94B2F10D94B2F10D94B2F150
:10E0C0000D94B2F10D94B2F10D94B2F10D94B2F140
:10E0D0000D94B2F10D94B2F10D94B2F10D94B2F130
:10E0E0000D94B2F141546D656761323536300041AF
:10E0F000726475696E6F206578706C6F72657220DE
:10E1000073746B3530305632206279204D4C530099
:10E11000426F6F746C6F616465723E004875683F52
:10E1200000436F6D70696C6564206F6E203D200048
:10E130004350552054797065202020203D20005FF9
:10E140005F4156525F415243485F5F3D2000415658
:10E1500052204C696243205665723D20004743437C
:10E160002056657273696F6E203D20004350552024
:10E1700049442020202020203D20004C6F7720663D
:10E18000757365202020203D20004869676820665F
:10E190007573652020203D200045787420667573D6
:10E1A00065202020203D20004C6F636B2066757336
:10E1B000652020203D20004D617220203720323024
:10E1C000313300312E362E3800342E332E350056A2
:10E1D00023202020414444522020206F7020636F70
:10E1E00064652020202020696E73747275637469E1
:10E1F0006F6E2061646472202020496E74657272B3
:10E20000757074006E6F20766563746F7200726A49
:10E210006D702020006A6D70200057686174207056
:10E220006F72743A00506F7274206E6F7420737541
:10E2300070706F72746564004D7573742062652030
:10E2400061206C6574746572002000577269747483
:10E25000696E672045450052656164696E672045B7
:10E26000450045452065727220636E743D00504F35
:10E27000525400303D5A65726F2061646472003FF1
:10E280003D43505520737461747300403D454550C3
:10E29000524F4D207465737400423D426C696E6B41
:10E2A000204C454400453D44756D70204545505215
:10E2B0004F4D00463D44756D7020464C415348001B
:10E2C000483D48656C70004C3D4C69737420492F83
:10E2D0004F20506F72747300513D51756974005234
:10E2E0003D44756D702052414D00563D73686F7707
:10E2F00020696E7465727275707420566563746FF0
:10E30000727300593D506F727420626C696E6B00BD
:10E310002A0011241FBECFEFD1E2DEBFCDBF01E046
:10E320000CBF12E0A0E0B2E0EEE1FDEF03E00BBFB6
:10E3300002C007900D92A030B107D9F712E0A0E01B
:10E34000B2E001C01D92AE30B107E1F70F9460F367
:10E350000D948DFE01E20EBF0FEF0DBF11241FBE05
:10E360000D9460F30D9400F020E030E040ED57E0B4
:10E3700005C0FA013197F1F72F5F3F4F2817390792
:10E38000C0F308959C01260F311DC901A0E0B0E043
:10E390002F5F3F4FABBFFC018791882361F08093D3
:10E3A000C6008091C00086FFFCCF8091C0008064D1
:10E3B0008093C000EACF08958DE08093C6008091DD
:10E3C000C00086FFFCCF8091C00080648093C000B5
:10E3D0008AE08093C6008091C00086FFFCCF8091C8
:10E3E000C00080648093C00008950F94C2F10F9420
:10E3F000DCF10895FC019081992359F09093C600B7
:10E400008091C00086FFFCCF8091C0008064809323
:10E41000C0003196992379F70895282F982F929567
:10E420009F70892F805D8A3308F0895F8093C600D2
:10E430008091C00086FFFCCF8091C00080648093F3
:10E44000C000822F8F70982F905D9A3308F0995FEB
:10E450009093C6008091C00086FFFCCF8091C000E1
:10E4600080648093C00008959C01FB01853691056E
:10E470001CF46330710594F0C90164E670E00F94F8
:10E480002EFE605D7F4F6093C6008091C00086FFC6
:10E49000FCCF8091C00080648093C0002B30310598
:10E4A00014F43297B4F0C90164E670E00F942EFEC4
:10E4B0006AE070E00F942EFE605D7F4F6093C600AF
:10E4C0008091C00086FFFCCF8091C0008064809363
:10E4D000C000C9016AE070E00F942EFEC0968093E0
:10E4E000C6008091C00086FFFCCF8091C000806490
:10E4F0008093C00008951F93182F8EE692EE60E07F
:10E500000F94C2F11093C6008091C00086FFFCCF2B
:10E510008091C00080648093C0000F94DCF11F9153
:10E5200008952F923F924F925F926F927F928F92B7
:10E530009F92AF92BF92CF92DF92EF92FF920F9392
:10E540001F93DF93CF93CDB7DEB762970FB6F894E2
:10E55000DEBF0FBECDBF382E622ECA01DB015C01CB
:10E560006D01772420E2222E2E010894411C511CBB
:10E570008BC081E0A81680E0B80681E0C80680E084
:10E58000D80628F0C601AA27BB270F940DF2BB2797
:10E59000AD2D9C2D8B2D0F940DF28A2D0F940DF225
:10E5A0002092C6008091C00086FFFCCF8091C00001
:10E5B00080648093C0009DE29093C6008091C0006B
:10E5C00086FFFCCF8091C00080648093C0002092C1
:10E5D000C6008091C00086FFFCCF8091C00080649F
:10E5E0008093C00019828601750188249924A1E0D6
:10E5F0003A1651F03A1620F0B2E03B1661F409C029
:10E600000BBFF701779007C0C7010F9477FE782EF4
:10E6100002C0F7017080872D0F940DF22092C60082
:10E620008091C00086FFFCCF8091C0008064809301
:10E63000C000872D8052F401EF70F0708F3520F408
:10E64000E40DF51D708204C0E40DF51D8EE280839B
:10E650000894E11CF11C011D111D0894811C911CE2
:10E6600090E18916910409F0C2CF80E190E0A0E02A
:10E67000B0E0A80EB91ECA1EDB1E198AC2010F9493
:10E68000FAF10F94DCF16A94662009F072CF629679
:10E690000FB6F894DEBF0FBECDBFCF91DF911F91B3
:10E6A0000F91FF90EF90DF90CF90BF90AF909F9031
:10E6B0008F907F906F905F904F903F902F90089534
:10E6C0002F923F924F925F926F927F928F929F9282
:10E6D000AF92BF92CF92DF92EF92FF920F931F9370
:10E6E000DF93CF93CDB7DEB7CD53D1400FB6F894BB
:10E6F000DEBF0FBECDBF01E20EBF0FEF0DBF94B75F
:10E70000F894A89514BE80916000886180936000A1
:10E7100010926000789493FF05C0E0910002F091A0
:10E7200001021995279A2F9A8091C00082608093E8
:10E73000C00080E18093C40088E18093C1000000A4
:10E74000EE24FF24870144E0A42EB12CCC24DD2448
:10E7500024C0C5010197F1F70894E11CF11C011DCB
:10E76000111D21E2E2162EE4F20620E0020720E06D
:10E77000120718F031E0C32ED12CC801B70127ECE5
:10E780003BE140E050E00F9441FE611571058105C9
:10E79000910519F485B1805885B98091C00087FD35
:10E7A00003C0C114D104A9F2A6014F5F5F4FC25E3E
:10E7B000DE4F59834883CE51D140C25EDE4F8881FF
:10E7C0009981CE51D140019711F00D9410FEC05D9A
:10E7D000DE4F19821882C053D14060E0C15DDE4F28
:10E7E0001882CF52D14088249924C35DDE4F19820C
:10E7F0001882CD52D140C05EDE4F188219821A8233
:10E800001B82C052D140CE5CDE4F188219821A8220
:10E810001B82C253D140EE24FF2487010BBFF701B6
:10E8200007911691C45CDE4F19830883CC53D14005
:10E830000D940BFEC25EDE4F28813981CE51D1404E
:10E840002130310509F52091C600C25EDE4F1982E4
:10E850001882CE51D14022C02F5F3F4F4F4F5F4FA4
:10E86000213082E138078AE7480780E0580780F0C6
:10E87000C45CDE4FE881F981CC53D140EF5FFF4F9C
:10E8800019F0EE27FF27099420E030E040E050E047
:10E890008091C00087FFE0CF2091C600C35DDE4FAE
:10E8A00048815981CD52D1404F5F5F4FC35DDE4FEC
:10E8B00059834883CD52D140213209F063C64A3092
:10E8C000510508F05FC60894811C911C53E0851621
:10E8D000910409F059C600E010E018C081E280936D
:10E8E000C6008091C00086FFFCCF8091C00080648C
:10E8F0008093C0002F5F3F4F2931310579F70F9486
:10E90000DCF10F5F1F4F0530110519F020E030E0FA
:10E91000E5CF10920A0210920B0210920C02109294
:10E920000D02109206021092070210920802109235
:10E930000902109202021092030210920402109235
:10E9400005028FEE90EE60E00F94F5F180E191EE1C
:10E9500060E00F94C2F18091C00087FFFCCF9091DE
:10E96000C600903608F09F759032B8F09093C600BC
:10E970008091C00086FFFCCF8091C00080648093AE
:10E98000C000A0E2A093C6008091C00086FFFCCF2B
:10E990008091C00080648093C000983409F4D7C18E
:10E9A0009934B8F4923409F459C1933458F490333B
:10E9B00019F1903308F4E3C59F33A1F1903409F0C5
:10E9C000DEC5BDC0953409F470C1963409F0D7C5D1
:10E9D00098C1923509F42BC2933538F49C3409F46C
:10E9E000F5C1913509F0CBC518C2963509F445C279
:10E9F000993509F0C4C567C483E792EE62E00F94CD
:10EA0000F5F110920602109207021092080210927D
:10EA1000090210920A0210920B0210920C0210923C
:10EA20000D0213C18FE792EE62E00F94F5F18FEEC5
:10EA300090EE60E00F94F5F181E291EE60E00F94CA
:10EA4000C2F187EB91EE60E00F94F5F180E391EE77
:10EA500060E00F94C2F184EE90EE60E00F94F5F167
:10EA60008FE391EE60E00F94C2F186E090E061E008
:10EA700070E00F9434F20F94DCF18DE591EE60E0DC
:10EA80000F94C2F189EC91EE60E00F94F5F18EE401
:10EA900091EE60E00F94C2F183EC91EE60E00F9490
:10EAA000F5F18CE691EE60E00F94C2F18EE10F94E7
:10EAB0000DF288E90F940DF281E00F940DF20F949E
:10EAC000DCF18BE791EE60E00F94C2F119E0E0E039
:10EAD000F0E010935700E4918E2F0F940DF20F94F5
:10EAE000DCF18AE891EE60E00F94C2F1E3E0F0E03F
:10EAF00010935700E4918E2F0F940DF20F94DCF1D8
:10EB000089E991EE60E00F94C2F1E2E0F0E0109349
:10EB10005700E4918E2F0F940DF20F94DCF188EAE8
:10EB200091EE60E00F94C2F1E1E0F0E01093570045
:10EB30001491812F0F940DF20F94DCF107CF8BE825
:10EB400092EE62E00F94F5F18BE492EE60E00F94A8
:10EB5000F5F10F94DCF100E010E019C0C8016F2D51
:10EB60000F947FFEFF2031F489E492EE60E00F9471
:10EB7000C2F10BC0F092C6008091C00086FFFCCFAE
:10EB80008091C00080648093C0000F5F1F4FC80158
:10EB900081519F41A0E0B0E0ABBFFC01F790BAE229
:10EBA000FB1621F0E2E000301E07C1F60F94DCF105
:10EBB0000F94DCF187E592EE60E00F94F5F10F948D
:10EBC000DCF1CC24DD2400E010E01EC0C8010F946D
:10EBD00077FEF82E882331F489E492EE60E00F94FA
:10EBE000C2F10BC08093C6008091C00086FFFCCFAD
:10EBF0008091C00080648093C000FE1419F00894D6
:10EC0000C11CD11C0F5F1F4FC80181519F41A0E063
:10EC1000B0E0ABBFFC01E790FAE2EF1621F022E092
:10EC20000030120799F60F94DCF10F94DCF182E6C4
:10EC300092EE60E00F94C2F1C60161E070E00F94C3
:10EC400034F20F94DCF10F94DCF110920202109276
:10EC50000302109204021092050278CE89E992EE26
:10EC600062E00F94F5F1279A2F9A16C02F9880E052
:10EC700090E0E0EDF7E03197F1F7019684369105E9
:10EC8000C1F72F9A80E090E0E0EDF7E03197F1F7DF
:10EC9000019684369105C1F78091C00087FFE6CFC9
:10ECA0008091C00087FFFCCF64C485EA92EE62E0E9
:10ECB0000F94F5F140910202509103026091040219
:10ECC0007091050281E020E10F9491F2809102029F
:10ECD00090910302A0910402B091050280509F4FD1
:10ECE000AF4FBF4F8093020290930302A0930402A0
:10ECF000B093050280509041A040B04008F426CE69
:10ED0000A4CF83EB92EE62E00F94F5F140910602FE
:10ED100050910702609108027091090280E020E1A1
:10ED20000F9491F28091060290910702A09108023F
:10ED3000B091090280509F4FAF4FBF4F80930602A2
:10ED400090930702A0930802B0930902FFCD80ECD4
:10ED500092EE62E00F94F5F183E792EE60E00F949B
:10ED6000F5F18FE792EE60E00F94F5F18BE892EE0B
:10ED700060E00F94F5F189E992EE60E00F94F5F10F
:10ED800085EA92EE60E00F94F5F183EB92EE60E09D
:10ED90000F94F5F180EC92EE60E00F94F5F187ECC2
:10EDA00092EE60E00F94F5F188ED92EE60E00F9442
:10EDB000F5F18FED92EE60E00F94F5F18AEE92EEB0
:10EDC00060E00F94F5F183E093EEBDCD87EC92EE19
:10EDD00062E00F94F5F181E40F947BF282E40F94EA
:10EDE0007BF283E40F947BF284E40F947BF285E45E
:10EDF0000F947BF286E40F947BF287E40F947BF20E
:10EE000088E40F947BF28AE40F947BF28BE40F94F6
:10EE10007BF28CE40F947BF299CD88ED92EE62E068
:10EE20000F94F5F1772473948824992409C48FED05
:10EE300092EE62E00F94F5F140910A0250910B02BC
:10EE400060910C0270910D0282E020E10F9491F22A
:10EE500080910A0290910B02A0910C02B0910D02D8
:10EE600080509F4FAF4FBF4F80930A0290930B0289
:10EE7000A0930C02B0930D0269CD8AEE92EE62E08F
:10EE80000F94F5F184EE90EE60E00F94F5F18FECC5
:10EE900091EE60E00F94F5F1662477244301CC5D98
:10EEA000DE4F19821882C452D140D401C301B695F5
:10EEB000A79597958795CA5DDE4F88839983AA8326
:10EEC000BB83C652D140CC5DDE4FA881B981C4520C
:10EED000D1401196CC5DDE4FB983A883C452D14096
:10EEE000CD0162E070E00F9434F2B0E2B093C6005E
:10EEF0008091C00086FFFCCF8091C0008064809329
:10EF0000C000EDE2E093C6008091C00086FFFCCF18
:10EF10008091C00080648093C000F0E2F093C6004E
:10EF20008091C00086FFFCCF8091C00080648093F8
:10EF3000C000CA5DDE4FE880F9800A811B81C6529D
:10EF4000D140BB27A12F902F8F2D0F940DF2CA5DBA
:10EF5000DE4F8881C652D1400F940DF2B0E2FB2EF5
:10EF6000F092C6008091C00086FFFCCF8091C00067
:10EF700080648093C0000DE30093C6008091C000C0
:10EF800086FFFCCF8091C00080648093C00010E2B7
:10EF90001093C6008091C00086FFFCCF8091C00016
:10EFA00080648093C0008BBEF3012791C65DDE4F65
:10EFB0002883CA52D140A22EBB24CC24DD2408943D
:10EFC000611C711C811C911C8BBEF3018791282E42
:10EFD0003324442455240894611C711C811C911C09
:10EFE0008BBEF3013791C55DDE4F3883CB52D140E4
:10EFF0000894611C711C811C911C8BBEF30147910C
:10F00000C45DDE4F4883CC52D140ADEFEA2EAFEF66
:10F01000FA2EAFEF0A2FAFEF1A2F6E0C7F1C801E57
:10F02000911E142D032DF22CEE24EA0CFB1C0C1D5A
:10F030001D1D0F940DF220E22093C6008091C000A8
:10F0400086FFFCCF8091C00080648093C000C65DC5
:10F05000DE4F8881CA52D1400F940DF230E23093D6
:10F06000C6008091C00086FFFCCF8091C000806404
:10F070008093C000C45DDE4F8881CC52D1400F9494
:10F080000DF240E24093C6008091C00086FFFCCFA5
:10F090008091C00080648093C000C55DDE4F888190
:10F0A000CB52D1400F940DF250E25093C6008091A4
:10F0B000C00086FFFCCF8091C00080648093C000B8
:10F0C0008FEFE8168FEFF80680E0080780E018075A
:10F0D00031F484E092EE60E00F94C2F1DFC0D80119
:10F0E000C7018070907CA070B0708050904CA040A0
:10F0F000B040D1F52FEF3FE340E050E0E222F322B1
:10F1000004231523CA5DDE4FA880B980CA80DB8046
:10F11000C652D140AE0CBF1CC01ED11EAA0CBB1CD7
:10F12000CC1CDD1C8EE092EE60E00F94C2F1BB2798
:10F13000A12F902F8F2D0F940DF28E2D0F940DF285
:10F1400030E23093C6008091C00086FFFCCF8091F2
:10F15000C00080648093C0004EE34093C60080915D
:10F16000C00086FFFCCF87C08EE09EEFA0E0B0E03D
:10F17000E822F9220A231B239CE0E91694E9F90608
:10F1800090E0090790E0190709F088C0C45DDE4FE0
:10F19000A881CC52D140EA2EFF2400E010E0102FCD
:10F1A0000F2DFE2CEE24C55DDE4FB881CB52D14031
:10F1B000EB0EF11C011D111DD601C501817090706F
:10F1C000A070B070DC0199278827E80EF91E0A1F8D
:10F1D0001B1F20EF30E040E050E0A222B322C42207
:10F1E000D52241E1AA0CBB1CCC1CDD1C4A95D1F7F1
:10F1F000EA0CFB1C0C1D1D1D81E090E0A0E0B0E0BE
:10F20000282239224A225B2235E1220C331C441C7D
:10F21000551C3A95D1F7E20CF31C041D151D57013E
:10F220006801AA0CBB1CCC1CDD1C85E192EE60E0E1
:10F230000F94C2F1C801AA27BB270F940DF2BB2778
:10F24000A12F902F8F2D0F940DF28E2D0F940DF274
:10F2500090E29093C6008091C00086FFFCCF809121
:10F26000C00080648093C000AEE3A093C60080918C
:10F27000C00086FFFCCF8091C00080648093C000F6
:10F28000C601AA27BB270F940DF2BB27AD2D9C2DDD
:10F290008B2D0F940DF28A2D0F940DF20F94DCF14B
:10F2A000CC5DDE4FE881F981C452D140F99709F471
:10F2B0004DCBF4E0EF2EF12C012D112D6E0C7F1CA7
:10F2C000801E911EF2CD83E093EE62E00F94F5F183
:10F2D0008AE192EE60E00F94C2F18091C00087FF56
:10F2E000FCCF1091C6001F751093C6008091C0001E
:10F2F00086FFFCCF8091C00080648093C0000F9493
:10F30000DCF1812F81548A3108F036C1163409F4BA
:10F3100095C0173490F4133409F44EC0143430F40B
:10F320001134F1F0123409F01DC130C0143409F465
:10F3300059C0153409F016C16BC01A3409F4C4C0A1
:10F340001B3438F4173409F48FC0183409F00AC19B
:10F35000A1C01B3409F4D2C01C3409F003C1E8C0B9
:10F360008FEF81B90DC082B1809582B980E090E0C5
:10F37000E0EDF7E03197F1F70196883C9105C1F790
:10F380008091C00087FFEFCF12B8EFC08FEF84B934
:10F390000DC085B1809585B980E090E0E0EDF7E0A3
:10F3A0003197F1F70196883C9105C1F78091C00033
:10F3B00087FFEFCF15B8D9C08FEF87B90DC088B1DF
:10F3C000809588B980E090E0E0EDF7E03197F1F7C3
:10F3D0000196883C9105C1F78091C00087FFEFCF6F
:10F3E00018B8C3C08FEF8AB90DC08BB180958BB9A7
:10F3F00080E090E0E0EDF7E03197F1F70196883C8E
:10F400009105C1F78091C00087FFEFCF1BB8ADC059
:10F410008FEF8DB90DC08EB180958EB980E090E0F0
:10F42000E0EDF7E03197F1F70196883C9105C1F7DF
:10F430008091C00087FFEFCF1EB897C08FEF80BBD1
:10F440000DC081B3809581BB80E090E0E0EDF7E0F6
:10F450003197F1F70196883C9105C1F78091C00082
:10F4600087FFEFCF11BA81C08FEF83BB0DC084B38C
:10F47000809584BB80E090E0E0EDF7E03197F1F714
:10F480000196883C9105C1F78091C00087FFEFCFBE
:10F4900014BA6BC08FEF809301010FC080910201FD
:10F4A00080958093020180E090E0E0EDF7E03197F5
:10F4B000F1F70196883C9105C1F78091C00087FF64
:10F4C000EDCF1092020151C08FEF809304010FC065
:10F4D0008091050180958093050180E090E0E0ED4A
:10F4E000F7E03197F1F70196883C9105C1F78091DB
:10F4F000C00087FFEDCF1092050137C08FEF8093DA
:10F5000007010FC08091080180958093080180E079
:10F5100090E0E0EDF7E03197F1F70196883C910536
:10F52000C1F78091C00087FFEDCF109208011DC088
:10F530008FEF80930A010FC080910B01809580931B
:10F540000B0180E090E0E0EDF7E03197F1F70196F4
:10F55000883C9105C1F78091C00087FFEDCF1092E4
:10F560000B0103C085E292EEEEC98091C00087FFD7
:10F57000FCCF8091C600EAC988E392EEE4C98CE131
:10F5800091EEE1C988249924933011F1943028F444
:10F59000913089F09230B8F408C0953061F195301F
:10F5A000F0F0963009F048C043C02B3109F042C951
:10F5B00091E06BE13FC96227C15DDE4F2883CF52E6
:10F5C000D14092E037C9B22FA0E0622793E032C960
:10F5D000822F90E0A82BB92B622794E02BC92E3004
:10F5E00009F039C3622795E0C05DDE4F19821882A9
:10F5F000C053D1401FC9E1E0F0E0EC0FFD1FC05D3A
:10F60000DE4F08811981C053D140E00FF11F2083E4
:10F610000F5F1F4FC05DDE4F19830883C053D14079
:10F6200062270A171B0709F005C9D80196E002C92D
:10F63000261709F010C303C0973009F0FBC87724E0
:10F640009981933109F412C19431C8F4963009F4C8
:10F65000D8C0973050F4923009F406C1933009F4C1
:10F660006DC0913009F059C253C0913109F477C08F
:10F67000923108F0BBC0903109F04FC2F5C098310B
:10F6800009F487C0993150F4953109F4EFC09531F0
:10F6900008F4C6C1963109F040C2C2C19A3109F4DA
:10F6A0006CC09A3108F491C09B3109F45BC09D3164
:10F6B00009F033C29D81903359F48F81882311F46E
:10F6C0009EE11CC0813011F091E018C098E916C08D
:10F6D000892F807591F0903539F4E0E0F0E089E011
:10F6E0008093570094910AC0983539F4E3E0F0E034
:10F6F00089E080935700949101C090E01A821B82A8
:10F700008D818C831D829E831F8227E030E009C299
:10F710001A8288E08B8381E48C8386E58D8382E581
:10F720008E8389E48F8383E5888780E589878FE5E9
:10F730008A8782E38B872BE030E0F3C18A818139AD
:10F7400041F0823941F0803911F48FE005C080E04A
:10F7500003C082E001C08AE01A828B8344C0772410
:10F76000739482C08D81882311F48EE12CC0813086
:10F7700011F081E028C088E926C01A82E1E0F0E0BB
:10F7800089E08093570084918B831C8224E030E0D1
:10F79000C8C18B81803589F48C81883039F4E2E0EE
:10F7A000F0E089E08093570084910DC0E0E0F0E044
:10F7B00089E080935700849106C0E3E0F0E089E09F
:10F7C0008093570084911A82DFCF8D81836C99E0FA
:10F7D000E1E0F0E0082E90935700E89507B600FCB2
:10F7E000FDCF1A821B8223E030E09BC180EC8A832C
:10F7F000CE5CDE4F188219821A821B82C253D1401E
:10F800008EC18A8190E0A0E0B0E0582F44273327D2
:10F8100022278B8190E0A0E0B0E0DC0199278827C7
:10F82000282B392B4A2B5B2B8D8190E0A0E0B0E098
:10F83000282B392B4A2B5B2B8C8190E0A0E0B0E089
:10F84000BA2FA92F982F8827282B392B4A2B5B2BCF
:10F85000220F331F441F551FC05EDE4F288339839C
:10F860004A835B83C052D1401A8259C13A81C95C34
:10F87000DE4F3883C753D140CA5CDE4F1882C6536F
:10F88000D1408B81C82EDD24CA5CDE4F488159816E
:10F89000C653D140C42AD52A933109F082C0CE5C28
:10F8A000DE4F88819981AA81BB81C253D1408050AB
:10F8B000904CA340B04030F583E0CE5CDE4FE88052
:10F8C000F9800A811B81C253D140F70100935B008C
:10F8D00080935700E89507B600FCFDCFCE5CDE4F65
:10F8E000088119812A813B81C253D14000501F4FAA
:10F8F0002F4F3F4FCE5CDE4F088319832A833B8313
:10F90000C253D140C05EDE4F488159816A817B81FC
:10F91000C052D140DE011B9631E08C9111962C91A2
:10F9200011971296C75CDE4F2883C953D140C85C3B
:10F93000DE4F1882C853D14090E0C85CDE4FE881AA
:10F94000F981C853D1408E2B9F2B0C01FA01609393
:10F950005B0030935700E89511244E5F5F4F6F4F67
:10F960007F4F0EEFE02E0FEFF02ECE0CDF1CC114F8
:10F97000D10499F685E0C05EDE4F088119812A81A5
:10F980003B81C052D140F80120935B008093570027
:10F99000E89507B600FCFDCF81E180935700E8951C
:10F9A00035C0C05EDE4F88819981AA81BB81C0527B
:10F9B000D140B695A795979587957C018601ABE0D8
:10F9C000AA2EB12CAC0EBD1E0BC0D5016D915D01F0
:10F9D000C7010F947FFE0894E11CF11C01501040F8
:10F9E0000115110591F7A60160E070E0440F551F65
:10F9F000661F771FC05EDE4FE880F9800A811B8199
:10FA0000C052D1404E0D5F1D601F711F1A82C05E33
:10FA1000DE4F488359836A837B83C052D1407FC0C5
:10FA2000FA80C55CDE4FF882CB53D140C65CDE4F16
:10FA30001882CA53D1408B81C82EDD24C65CDE4FAC
:10FA400008811981CA53D140C02AD12A1A828981DA
:10FA5000BE016D5F7F4F843121F59601C05EDE4FA0
:10FA6000E880F9800A811B81C052D1400BBFF701A9
:10FA700087919691DB018C9311969C936E5F7F4FDB
:10FA8000D801C7010296A11DB11DC05EDE4F88835B
:10FA90009983AA83BB83C052D14022503040F1F6F3
:10FAA00036C0C05EDE4F288139814A815B81C052F9
:10FAB000D1400894C108D108760100E010E0089414
:10FAC000C11CD11C0894E11CF11C011D111DE20E8A
:10FAD000F31E041F151F21BDBB27A52F942F832FB5
:10FAE00082BD2F5F3F4F4F4F5F4FF89A80B5DB01CC
:10FAF0008D93BD012E153F054007510761F7C05E8C
:10FB0000DE4F288339834A835B83C052D1409601FC
:10FB10002D5F3F4FFB01108204C080EC8A8322E0FE
:10FB200030E08BE18093C6008091C00086FFFCCF5F
:10FB30008091C00080648093C000C15DDE4FF88179
:10FB4000CF52D140F093C6008091C00086FFFCCF19
:10FB50008091C00080648093C000432F3093C60022
:10FB60008091C00086FFFCCF8091C00080648093AC
:10FB7000C000922F2093C6008091C00086FFFCCF6A
:10FB80008091C00080648093C0008EE08093C600A6
:10FB90008091C00086FFFCCF8091C000806480937C
:10FBA000C00065E1C15DDE4FE880CF52D1406E25D7
:10FBB00069276427FE01319610C090819093C6009A
:10FBC0008091C00086FFFCCF31968091C000806498
:10FBD0008093C0006927215030402115310569F715
:10FBE0006093C6008091C00086FFFCCF8091C0006A
:10FBF00080648093C00085B1805885B9772081F4F6
:10FC0000C15DDE4F0881CF52D1400F5FC15DDE4F35
:10FC10000883CF52D14090E0A0E0B0E00D941AF4F8
:10FC200027982F9880E090E020ED37E0F901319798
:10FC3000F1F7019684369105C9F700008091C00064
:10FC40008D7F8093C00081E180935700E895EE2777
:10FC5000FF270994FFCF90E00D941AF497FB092E2B
:10FC600007260AD077FD04D02ED006D000201AF443
:10FC7000709561957F4F0895F6F7909581959F4F08
:10FC80000895A1E21A2EAA1BBB1BFD010DC0AA1FDD
:10FC9000BB1FEE1FFF1FA217B307E407F50720F0F5
:10FCA000A21BB30BE40BF50B661F771F881F991F70
:10FCB0001A9469F760957095809590959B01AC01B9
:10FCC000BD01CF010895AA1BBB1B51E107C0AA1FAC
:10FCD000BB1FA617B70710F0A61BB70B881F991FED
:10FCE0005A95A9F780959095BC01CD010895F99991
:10FCF000FECF92BD81BDF89A992780B50895262F31
:10FD0000F999FECF1FBA92BD81BD20BD0FB6F89400
:0EFD1000FA9AF99A0FBE01960895F894FFCF63
:00000001FF
