:100000000C9435010C9466010C9466010C94660105
:100010000C9466010C9466010C9466010C946601C4
:100020000C9466010C9466010C9466010C946601B4
:100030000C9466010C9466010C9466010C946601A4
:100040000C9466010C9466010C9466010C94660194
:100050000C9466010C9466010C9466010C94981043
:100060000C9466010C946E100C9444100C94660170
:100070000C9466010C9466010C9466010C94660164
:100080000C9466010C9466010C9466010C94660154
:100090000C941A100C94F00F0C9466010C94E2105E
:1000A0000C9466010C9466010C9466010C94660134
:1000B0000C9466010C9466010C9466010C94660124
:1000C0000C9466010C9466010C9466010C94C60FA6
:1000D0000C949C0F0C9466010C9466010C946601C0
:1000E0000C9466010C947A030C947E030C948F019B
:1000F0000C94F8010C945C030C9482030C949F0202
:100100000C94E4010C9455030C944D030C940602DA
:100110000C9462030C948C030C9470030C9466038F
:100120000C9488030C94C1120C9451030C946C032E
:100130000C943B030C9474030C94D5010C9436037B
:100140000C9459030C945202000021002400270053
:100150002A002D00300033000101000004010701D6
:100160000A0100002200250028002B002E0031008B
:10017000340002010000050108010B0100000A0B18
:1001800002090C0D0E080703040100000000000026
:10019000000000000000000000000000000000005F
:1001A000000000000000000012111000000000001C
:1001B000000000000000000000000000000000003F
:1001C0000000000020002300260029002C002F0042
:1001D00032000001000003010601090105050505C3
:1001E000070508080808020202020A0A08080404AF
:1001F00004040101010101010101030303030303DD
:100200000303040707070C0C0C0C0C0C0C0C02026B
:10021000020206060606060606060B0B0B0B0B0B68
:100220000B0B0102102020080810204010204080F5
:1002300002010201080402010102040810204080AA
:100240008040201008040201800402018040201038
:100250000804020108040201010204081020408081
:100260000102040810204080C11211241FBECFEFEC
:10027000D1E2DEBFCDBF00E00CBF13E0A0E0B2E0F2
:10028000E2E4FFE200E00BBF02C007900D92A23350
:10029000B107D9F72FE0A2E3B3E001C01D92AB365E
:1002A000B207E1F711E0C5E3D1E000E006C0219715
:1002B0000109802FFE010E949717C433D10780E007
:1002C0000807A9F70E9440130C949F170C94000094
:1002D000FC01A089B18982E08C93A485B5851C922C
:1002E000A685B7858FEC8C93108EA489B58986E09E
:1002F0008C93A289B3898C9180618C93A289B389F4
:100300008C9188608C93A289B3898C9180688C933E
:100310000288F389E02D80818F7D80830895AF92DC
:10032000BF92CF92DF92EF92FF920F931F93CF93E2
:10033000DF936C017B018B01040F151FEB015E0144
:10034000AE18BF08C017D10759F06991D601ED91D9
:10035000FC910190F081E02DC6011995892B79F768
:10036000C501DF91CF911F910F91FF90EF90DF902A
:10037000CF90BF90AF900895FC01A089B1898C9176
:10038000A689B78982FD0FC09C91818D8F5F8F7385
:10039000228D821749F0A18DAE0FBF2FB11D5D9642
:1003A0009C93818F08958C910895FC01538D448D09
:1003B000252F30E0842F90E0821B930B541710F010
:1003C000CF96089501970895FC01918D828D98171D
:1003D00061F0A28DAE0FBF2FB11D5D968C91928DF5
:1003E0009F5F9F73928F90E008958FEF9FEF089526
:1003F000FC01918D828D981731F0828DE80FF11DEF
:10040000858D90E008958FEF9FEF0895FC01918D09
:10041000228D892F90E0805C9F4F821B91098F7302
:100420009927089580E79DE00E94060221E0892B2C
:1004300009F420E0822F08958DE09EE00E940602DC
:1004400021E0892B09F420E0822F08958AEA9EE0BA
:100450000E94060221E0892B09F420E0822F0895F2
:10046000FC01A48DA80FB92FB11DA35ABF4F2C9129
:10047000848D90E001968F739927848FA689B78920
:100480002C93A089B1898C91837080648C93938D17
:10049000848D981306C00288F389E02D80818F7DBA
:1004A00080830895EF92FF920F931F93CF93DF9372
:1004B000EC0181E0888F9B8D8C8D98131AC0E889A0
:1004C000F989808185FF15C09FB7F894EE89FF896F
:1004D0006083E889F98980818370806480839FBF0D
:1004E00081E090E0DF91CF911F910F91FF90EF900D
:1004F0000895F62E0B8D10E00F5F1F4F0F7311271D
:10050000E02E8C8D8E110CC00FB607FCFACFE88957
:10051000F989808185FFF5CFCE010E943002F1CFAD
:10052000EB8DEC0FFD2FF11DE35AFF4FF0829FB7CB
:10053000F8940B8FEA89FB8980818062CFCFCF93BB
:10054000DF93EC01888D8823B9F0AA89BB89E889FB
:10055000F9898C9185FD03C0808186FD0DC00FB6A1
:1005600007FCF7CF8C9185FFF2CF808185FFEDCF1F
:10057000CE010E943002E9CFDF91CF910895CF9351
:10058000DF93EC010E949F02EA89FB8980818F7EC4
:100590008083EA89FB898081877F8083EA89FB8960
:1005A00080818F778083EA89FB8980818F7D80833A
:1005B0008A8D898FDF91CF91089580E090E0892B1B
:1005C00029F00E94260281110E94000080E090E044
:1005D000892B29F00E941C0281110E94000080E0FA
:1005E00090E0892B29F00E94120281110E940000E4
:1005F00080E090E0892B49F080E090E0892B29F0A1
:100600000E94000081110C9400000895282F30E012
:10061000F901E458FE4F9491F901EE5DFD4F4491CC
:1006200024523E4FF9012491222309F435C0992325
:1006300011F191509231F8F4E92FF0E08827EC5D48
:10064000FC4F8F4F0C9497175503590336034D03F6
:1006500051033B035C03620366036C037003740382
:100660007A037E033B03820388038C03809180001E
:100670008F7780938000E22FF0E0EE0FFF1FEE599E
:10068000FE4FA591B4918FB7F894EC91611148C0D9
:1006900040954E234C938FBF0895809180008F7DAD
:1006A000E8CF80918000877FE4CF84B58F7784BDC9
:1006B000E2CF84B58F7DFBCF8091B0008F778093A0
:1006C000B000D9CF8091B0008F7DF9CF809190009C
:1006D0008F7780939000CFCF809190008F7DF9CF5E
:1006E00080919000877FF5CF8091A0008F778093D5
:1006F000A000C1CF8091A0008F7DF9CF8091A00094
:10070000877FF5CF809120018F7780932001B3CF31
:10071000809120018F7DF9CF80912001877FF5CFD7
:100720004E2BB8CFCF93DF9390E0FC01EE5DFD4FF1
:10073000249184529E4FFC0184918823D1F090E053
:10074000880F991FFC01E85BFE4FA591B491FC0155
:10075000EE59FE4FC591D49161110EC09FB7F89428
:100760008C91E22FE0958E238C932881E223E883FD
:100770009FBFDF91CF9108958FB7F894EC91E22B52
:10078000EC938FBFF6CF3FB7F89480910E0D909108
:100790000F0DA091100DB091110D26B5A89B05C0AD
:1007A0002F3F19F00196A11DB11D3FBFBA2FA92FF0
:1007B000982F8827BC01CD01620F711D811D911DED
:1007C00042E0660F771F881F991F4A95D1F7089559
:1007D0008F929F92AF92BF92CF92DF92EF92FF9251
:1007E0006B017C010E94C3034B015C01C114D10465
:1007F000E104F104B9F00E94C303681979098A0978
:100800009B09683E73408105910580F321E0C21A7F
:10081000D108E108F10888EE880E83E0981EA11C3B
:10082000B11CE4CFFF90EF90DF90CF90BF90AF90DE
:100830009F908F9008951F93CF93DF93C1E0C09353
:10084000C90C882399F1D091B8001091BA00809119
:10085000BC008A7B8093BC0060E084E10E940603B8
:1008600060E085E10E9406031092480DC093470D99
:100870001092420D61E084E10E94060361E085E18F
:100880000E9406038091B9008E7F8093B900809109
:10089000B9008D7F8093B90088E48093B80085E427
:1008A0008093BC001093BA00D093B800DF91CF9131
:1008B0001F9108952091EA0C260F3327331F213210
:1008C0003105ECF42091480DFC0190E080E02430EB
:1008D00069F082E00895A091EA0C2191AC014653A1
:1008E000534FA40FB52FB11D2C930196861798F383
:1008F0008091EA0C680F6093EA0C80E0089581E033
:1009000008950895E0914F0D80914E0DE81730F451
:10091000F0E0E05BF24F808190E008958FEF9FEF71
:10092000089590914F0D80914E0D2FEF3FEF981746
:1009300048F4E92FF0E0E05BF24F208130E09F5F68
:1009400090934F0DC901089580914E0D90914F0DD8
:10095000891B990B0895CF93DF93CB01EA01642F94
:100960000E945A04CE01DF91CF910895CF93DF9377
:100970001F92CDB7DEB7698361E0CE0101960E9478
:100980005A0481E090E00F90DF91CF91089590E0BC
:1009900080E00895FC0101900020E9F73197AF0154
:1009A000481B590BBC018AEA9EE00C948F018F9280
:1009B0009F92AF92BF920F931F93CF93DF93CDB7C8
:1009C000DEB7A1970FB6F894DEBF0FBECDBF19A258
:1009D000423008F44AE08E010F5D1F4F842E912CA7
:1009E000B12CA12CA50194010E94FB15E62FB901A1
:1009F000CA01EA30F4F4E05DD801EE938D01232BB7
:100A0000242B252B79F790E080E0109719F0CD0189
:100A10000E94CA04A1960FB6F894DEBF0FBECDBFE8
:100A2000DF91CF911F910F91BF90AF909F908F90CA
:100A30000895E95CE1CFCF93DF930E94CA04EC01F3
:100A40008AE192E00E94CA048C0F9D1FDF91CF9132
:100A500008954F925F926F927F928F929F92AF9282
:100A6000BF92CF92DF92EF92FF920F931F93CF939B
:100A70006B017C01742EAC019B010E947D178823C1
:100A800099F08DE192E0CF911F910F91FF90EF903F
:100A9000DF90CF90BF90AF909F908F907F906F909E
:100AA0005F904F900C94CA0446015701E894B7F840
:100AB0002FEF3FEF4FE75FE7C501B4010E947D17BD
:100AC00081110DC02FEF3FEF4FE75FE7C501B40184
:100AD0000E94D71418161CF481E292E0D4CF2FEFB5
:100AE0003FEF4FE75FE4C701B6010E9432171816C7
:100AF0001CF485E292E0C7CF2FEF3FEF4FE75FECAA
:100B0000C701B6010E94D71487FDF3CF20E030E083
:100B1000A901C701B6010E94D71410E000E087FFC9
:100B20000AC06DE28AEA9EE00E9452028C01F7FA46
:100B3000F094F7F8F094C0E060E070E080E09FE3AC
:100B40007C1641F020E030E040E251E40E948A1639
:100B5000CF5FF6CFA70196010E941E162B013C0124
:100B60000E9403174B015C014AE00E94D7047C01FC
:100B7000E00EF11ECC23C1F1C501B4010E94DC14CA
:100B80009B01AC01C301B2010E941D164B015C0127
:100B90006EE28AEA9EE00E945202E80EF91EC150FF
:100BA00018F120E030E040E251E4C501B4010E94B8
:100BB0003D152B013C010E9403174B01B12CA12CC8
:100BC0004AE0C501B4010E94D704E80EF91EC50130
:100BD000B4010E94DC149B01AC01C301B2010E946C
:100BE0001D164B015C01DBCFC701CF911F910F9107
:100BF000FF90EF90DF90CF90BF90AF909F908F903D
:100C00007F906F905F904F900895CF93DF9342E075
:100C10000E942905EC018AE192E00E94CA048C0F2F
:100C20009D1FDF91CF910895CF92DF92EF92FF92B7
:100C3000CF93DF936C01990FEE08FF08F7FE1FC0FA
:100C40006DE28AEA9EE00E945202EC016627772755
:100C5000CB016C197D098E099F094AE00E94D704D7
:100C6000C80FD91F8AE192E00E94CA048C0F9D1F11
:100C7000DF91CF91FF90EF90DF90CF9008954AE001
:100C8000C701B6010E94D704EC01ECCF2F923F922E
:100C90004F925F926F927F928F929F92AF92BF928C
:100CA000CF92DF92EF92FF920F931F93CF93DF9338
:100CB000CDB7DEB7EE970FB6F894DEBF0FBECDBF4F
:100CC0006C01A090470FB090480FA114B10409F433
:100CD00054C1F12CE12CF0E22F2E312CD5011496C9
:100CE0008D919C9181010E191F098017910708F4BD
:100CF0008C01F50180800E94C3032B013C0180918F
:100D0000480D811175C0902EF0E2F01710F4E0E26A
:100D10009E2E81E08093480D21E0C101801B910B44
:100D2000E816F90608F420E02093470D9FEF909312
:100D3000460D1092450D8FEF890D8093440DA1E073
:100D4000A093430D8091430D880C882A8092430D17
:100D50008091420D813009F096C01092420D0E94A0
:100D6000C3032B013C018091430D8093BB00809114
:100D70004A0D90914B0DA0914C0DB0914D0D892BCA
:100D80008A2B8B2BA1F00E94C30320914A0D309136
:100D90004B0D40914C0D50914D0D6419750986090C
:100DA0009709261737074807590708F442C080916A
:100DB000BC0083FDD8CFB5ECB093BC000E94C30348
:100DC0002B013C018091480D813009F460C0809175
:100DD000450D891510F49090450DA2E2BDE0E0E5C7
:100DE000FDE080E0891551F19D9191938F5FFACFDD
:100DF00080914A0D90914B0DA0914C0DB0914D0DED
:100E0000892B8A2B8B2B09F47ACF0E94C303209164
:100E10004A0D30914B0D40914C0D50914D0D641980
:100E2000750986099709261737074807590708F0F3
:100E300066CF8091490D0E941B04912C10924F0D9A
:100E400090924E0D9016110609F0A8C08824839444
:100E5000912C8C0E9D1E8E0C9F1C3401C401861992
:100E6000970980179107A8F5D50111968D919C914E
:100E7000DC01ED91FC910284F385E02D1995F401DC
:100E800081934F01EBCFE5EEE093BC0097CF8091CB
:100E90004A0D90914B0DA0914C0DB0914D0D892BA9
:100EA0008A2B8B2B09F48ECF0E94C30320914A0D0D
:100EB00030914B0D40914C0D50914D0D64197509B9
:100EC00086099709261737074807590708F07ACF88
:100ED000B0CFE00EF11EF0E2EF16F10408F4FECE02
:100EE0008981823409F05AC0FE013196CE014F96B5
:100EF0008F0130E020E0D8014D918D01240F311D8C
:100F00008A179B07C1F7BE016F5D7F4F828190E01A
:100F1000982F88274381840F911DDB018D939D932A
:100F2000BD013296E017F10789F78EE1FE01B19617
:100F3000D60101900D928A95E1F781E0F601448D8A
:100F4000558D4217530751F5EE960FB6F894DEBF54
:100F50000FBECDBFDF91CF911F910F91FF90EF900A
:100F6000DF90CF90BF90AF909F908F907F906F90C9
:100F70005F904F903F902F9008958091490F9091EE
:100F80004A0F009759F0DC01ED91FC910084F18546
:100F9000E02D199500E210E0892B29F480E0D4CFF0
:100FA00001501109A1F18091490F90914A0FDC0184
:100FB000ED91FC910484F585E02D1995823491051D
:100FC00031F18091490F90914A0FDC01ED91FC9134
:100FD0000484F585E02D19954697C9F08091490F55
:100FE00090914A0FDC01ED91FC910284F385E02D94
:100FF00019958091490F90914A0FDC01ED91FC9178
:101000000084F185E02D1995892B51F6C7CF809189
:10101000490F90914A0FDC01ED91FC910484F58514
:10102000E02D19958234910509F081C08091490F16
:1010300090914A0FDC01ED91FC910484F585E02D3F
:101040001995712C60E2E62EF12C469729F477244D
:10105000739454E1E52EF12C8091490F90914A0F41
:10106000DC01ED91FC910084F185E02D19958E1540
:101070009F0508F493CF0091490F10914A0FFE018C
:1010800031965F014F012FB7F89480911E0D90911A
:101090001F0DA091200DB091210D2FBFF801808769
:1010A0009187A287B387D801ED91FC910284F385E3
:1010B000E02DC801199597FF54C02FB7F89480917F
:1010C0001E0D90911F0DA091200DB091210D2FBFED
:1010D000F8014085518562857385841B950BA60BAD
:1010E000B70B448155816681778184179507A607E0
:1010F000B707C8F28981772009F4F2CE863109F06A
:101100004DCF8A81813109F049CF8B8130E020E0D9
:101110008B3009F043CF832F90E08E159F0560F54B
:101120008A0D9B1DFC018081280F3F5FF4CF8091C9
:10113000490F90914A0FDC01ED91FC910484F585F3
:10114000E02D1995469709F471CF8091490F909140
:101150004A0FDC01ED91FC910284F385E02D199595
:101160001DCFD4018D934D01CD018A199B098E1598
:101170009F0508F488CFBECF8E819F81982789274D
:101180009827F60193878287158E148E81E022239B
:1011900009F4DACE03CF2F923F924F925F926F9273
:1011A0007F928F929F92AF92BF92CF92DF92EF92F7
:1011B000FF920F931F93CF93DF93CDB7DEB7CA563D
:1011C000D1090FB6F894DEBF0FBECDBF8091C70C1A
:1011D0009091C80CCD9709F04FC383ED9BE00E941E
:1011E00047126BA37CA38DA39EA3AB01BC0183ED2F
:1011F0009BE00E947D124B015C018DE49CE00E940B
:1012000047126F8F78A389A39AA3AB01BC018DE429
:101210009CE00E947D126B017C01A5019401C50137
:10122000B4010E943D154B015C01A7019601C70165
:10123000B6010E943D159B01AC01C501B4010E949D
:101240001E1620E030E040E05FE30E943D150E9462
:101250003D174B015C012EEC3AE649E35EE30E9448
:101260003D152B013C012F8D38A149A15AA16BA13D
:101270007CA18DA19EA10E941D166FA378A789A7AE
:101280009AA7A30192010E941D166B017C012FA158
:1012900038A549A55AA5C301B2010E941E162B010B
:1012A0003C0120E030E0A901C701B6010E94D7143B
:1012B00087FF09C020E030E0A901C301B2010E940C
:1012C000D71487FD14C020E030E0A901C701B601A2
:1012D0000E94321718160CF04CC420E030E0A9012F
:1012E000C301B2010E94321718160CF042C420E06C
:1012F00030E040E450E4C501B40190580E943D152F
:101300009B01AC01C301B2010E94D71487FD11C03B
:1013100020E030E040E450E4C501B4010E943D15F6
:101320009B01AC01C701B6010E94321718160CF0E0
:10133000DFC389E292E00E941B0583ED9BE00E94DF
:101340004712C0900402D0900502E0900602F0908F
:101350000702A70196010E943D156F8F78A389A30C
:101360009AA38FED9AE00E9447129B01AC01C7013E
:10137000B6010E943D156BA37CA38DA39EA38BEEAB
:1013800099E00E9447129B01AC01C701B6010E947F
:101390003D156FA378A789A79AA787EF98E00E94C9
:1013A00047129B01AC01C701B6010E943D156BA716
:1013B0007CA78DA79EA783E098E00E9447129B011F
:1013C000AC01C701B6010E943D156FA778AB89AB90
:1013D0009AAB8FE097E00E9447129B01AC01C701D6
:1013E000B6010E943D156BAB7CAB8DAB9EAB8BE128
:1013F00096E00E9447129B01AC01C701B6010E9412
:101400003D156FAB78AF89AF9AAF87E295E00E9448
:1014100047129B01AC01C701B6010E943D156BAF9D
:101420007CAF8DAF9EAF83E394E00E9447129B0197
:10143000AC01C701B6010E943D152B013C014F8D47
:1014400058A169A17AA183ED9BE00E947D122396A9
:101450006CAF7DAF8EAF9FAF23974BA15CA16DA109
:101460007EA18FED9AE00E947D1227966CAF7DAF32
:101470008EAF9FAF27974FA158A569A57AA58BEE90
:1014800099E00E947D122B966CAF7DAF8EAF9FAF1F
:101490002B974BA55CA56DA57EA587EF98E00E94D4
:1014A0007D122F966CAF7DAF8EAF9FAF2F974FA55C
:1014B00058A969A97AA983E098E00E947D126396F1
:1014C0006CAF7DAF8EAF9FAF63974BA95CA96DA941
:1014D0007EA98FE097E00E947D1267966CAF7DAF8A
:1014E0008EAF9FAF67974FA958AD69AD7AAD8BE1CD
:1014F00096E00E947D126B966CAF7DAF8EAF9FAF72
:101500006B974BAD5CAD6DAD7EAD87E295E00E9413
:101510007D126F966CAF7DAF8EAF9FAF6F97B301AB
:10152000A20183E394E00E947D12A3966CAF7DAF8D
:101530008EAF9FAFA3978CEA93E00E9447124B01B6
:101540005C0182E393E00E9447126B017C01B501CC
:10155000A4018CEA93E00E947D12A7966CAF7DAF48
:101560008EAF9FAFA797B701A60182E393E00E94D9
:101570007D12AB966CAF7DAF8EAF9FAFAB9784E61D
:1015800092E00E941B058DE692E00E9478126F8D1A
:1015900078A189A19AA10E947A128AE792E00E941A
:1015A000781223966CAD7DAD8EAD9FAD23970E94D2
:1015B00005068DE792E00E9478126BA17CA18DA1B7
:1015C0009EA10E947A128AE792E00E9478122796E2
:1015D0006CAD7DAD8EAD9FAD27970E9405068AE864
:1015E00092E00E9478126FA178A589A59AA50E9421
:1015F0007A128AE792E00E9478122B966CAD7DAD4C
:101600008EAD9FAD2B970E94050687E992E00E9460
:1016100078126BA57CA58DA59EA50E947A128AE7FB
:1016200092E00E9478122F966CAD7DAD8EAD9FAD8D
:101630002F970E94050684EA92E00E9478126FA517
:1016400078A989A99AA90E947A128AE792E00E9451
:10165000781263966CAD7DAD8EAD9FAD63970E94A1
:10166000050681EB92E00E9478126BA97CA98DA9F6
:101670009EA90E947A128AE792E00E9478126796E9
:101680006CAD7DAD8EAD9FAD67970E9405068DEB6D
:1016900092E00E9478126FA978AD89AD9AAD0E9450
:1016A0007A128AE792E00E9478126B966CAD7DAD5B
:1016B0008EAD9FAD6B970E94050686EC92E00E946E
:1016C00078126BAD7CAD8DAD9EAD0E947A128AE72B
:1016D00092E00E9478126F966CAD7DAD8EAD9FAD9D
:1016E0006F970E9405068FEC92E00E947812C3016A
:1016F000B2010E947A128AE792E00E947812A396C1
:101700006CAD7DAD8EAD9FADA3970E94050687EDB4
:1017100092E00E947812C501B4010E947A128AE711
:1017200092E00E947812A7966CAD7DAD8EAD9FAD14
:10173000A7970E94050685EE92E00E947812C701E5
:10174000B6010E947A128AE792E00E947812AB9664
:101750006CAD7DAD8EAD9FADAB970E94050623EDC0
:101760003BE0AFEDEA2EAAE0FA2E0BEE19E0A7EF70
:10177000B8E083E098E098A38F8F6FE077E04BE1CB
:1017800056E087E2A82E85E0B82E93E3892E94E0F8
:10179000992EE7EC2E2EECE03E2EECEA6E2EE3E0E6
:1017A0007E2EF2E34F2EF3E05F2E90E080E06901A1
:1017B000C80ED91EF601118210826701C80ED91E0B
:1017C000F601118210826801C80ED91EF60111823D
:1017D00010826D01C80ED91EF60111821082CF8CC5
:1017E000D8A0C80ED91EF601118210826B01C80E56
:1017F000D91EF601118210826A01C80ED91EF601A7
:10180000118210826501C80ED91EF6011182108264
:101810006401C80ED91EF60111821082F3011192E3
:1018200011923F01F201119211922F0102968A3713
:10183000910509F0BCCF26583F4FFAE7EF0EF11C97
:1018400006581F4FA658BF4F8F8D98A186589F4F9F
:1018500098A38F8F66587F4F46585F4F9AE7A90E1F
:10186000B11CEAE78E0E911C2216330609F095CFC3
:101870001092C80C1092C70C8DE09EE00E94680187
:101880008DE09EE090934A0F8093490F6EEE72E0D8
:1018900080E090E00E94E80380EF92E00E941B0548
:1018A000CE0101960E94460681110AC081E093E0B4
:1018B0000E941B0564E670E080E090E00E94E8036F
:1018C000C0900402D0900502E0900602F09007025A
:1018D0000091C70C1091C80C000F111FC8018D5248
:1018E000944F5C016F85788990E080E00E94DC1461
:1018F000A70196010E943D150E94FC16F501718317
:101900006083C8018152954F5C0169897A8990E0B2
:1019100080E00E94DC14A70196010E943D150E9400
:10192000FC16F50171836083C8018551964F5C01F7
:101930006B897C8990E080E00E94DC14A70196010D
:101940000E943D150E94FC16F50171836083C80159
:101950008950974F5C016D897E8990E080E00E94FC
:10196000DC14A70196010E943D150E94FC16F501AA
:1019700071836083C8018D5F974F5C016F89788D9B
:1019800090E080E00E94DC14A70196010E943D15C2
:101990000E94FC16F50171836083C801815F984F36
:1019A0005C01698D7A8D90E080E00E94DC14A701D3
:1019B00096010E943D150E94FC16F501718360831B
:1019C000C801855E994F5C0169857A8590E080E069
:1019D0000E94DC14A70196010E943D150E94FC168E
:1019E000F50171836083C801895D9A4F5C016B8545
:1019F0007C8590E080E00E94DC14A70196010E94A3
:101A00003D150E94FC16F50171836083C8018D5C51
:101A10009B4F5C016D857E8590E080E00E94DC1428
:101A2000A70196010E943D150E94FC16F5017183E5
:101A300060836EEE72E080E090E00E94E8038DE04B
:101A40009EE00E94BF0262E370E080E090E00E94AE
:101A5000E803E9E2F2E0F490E3EEF1E0E491F0E093
:101A6000EE0FFF1FEE53FE4FC590D49010922E0440
:101A700010922F041092300410923104109232040C
:101A800061E087E00E94920360E087E00E94060325
:101A900062E170E080E090E00E94E80361E087E0AE
:101AA0000E9406038BE990E00197F1F760E087E080
:101AB0000E94920380E991E0F60120812F2109F034
:101AC0006FC00197C9F780E090ECA9E7B4EC809370
:101AD000260490932704A0932804B09329048093AC
:101AE0002A0490932B04A0932C04B0932D04BCC023
:101AF00080E492E00E941B052BA13CA14DA15EA1B8
:101B00006F8D78A189A19AA10E941E1620E030E075
:101B100040E05FE30E943D150E94FC16072E000C7A
:101B2000880B990B0E94DE146B017C012BA13CA158
:101B30004DA15EA10E948A16609304027093050273
:101B400080930602909307020E9405062F8D38A10C
:101B500049A15AA1C701B6010E948A1660930002EA
:101B60007093010280930202909303020E94050683
:101B7000E4CB83E592E00E941B0560910402709122
:101B8000050280910602909107020E94050660916D
:101B90000002709101028091020290910302E6CF4F
:101BA00080E991E0F60120812F2119F00197D1F70A
:101BB0008ACF28E2B22E30E8E32EA12C80E991E012
:101BC000F60120812F2119F40197D1F77CCF0E94D3
:101BD000C3032B013C0180E991E0F60120812F2114
:101BE00019F00197D1F76FCF0E94C30364197509EB
:101BF00086099709693271058105910538F0EA2D4A
:101C0000F0E0EA5DFB4F80858E298087E69419F429
:101C1000A39490E8E92EBA94B110D0CF61E087E0A8
:101C20000E94920361E087E00E94060360912E0407
:101C300070E090E080E00E94DC14609326047093D2
:101C4000270480932804909329046091300470E065
:101C500090E080E00E94DC1460932A0470932B04CF
:101C600080932C0490932D04C80184559C4F7C01D3
:101C700060912A0470912B0480912C0490912D0482
:101C80000E94FC16F701718360830E5C1C4F60910B
:101C900026047091270480912804909129040E94C1
:101CA000FC16F8017183608362E370E080E090E0ED
:101CB0000E94E80380E79DE00E94680180E79DE0C4
:101CC00090934A0F8093490F6EEE72E080E090E0AF
:101CD0000E94E80382E193E00E941B05CE01019679
:101CE0000E94460681110AC081E093E00E941B0514
:101CF00064E670E080E090E00E94E803C09000029B
:101D0000D0900102E0900202F0900302A090C70C74
:101D1000B090C80C8501035C1F4F000F111FC80154
:101D20008D52944F4C016F85788990E080E00E943D
:101D3000DC14A70196010E943D150E94FC16F401D7
:101D400071836083C8018152954F4C0169897A89FA
:101D500090E080E00E94DC14A70196010E943D15EE
:101D60000E94FC16F40171836083C8018551964F6F
:101D70004C016B897C8990E080E00E94DC14A70113
:101D800096010E943D150E94FC16F4017183608348
:101D9000C8018950974F4C016D897E8990E080E0A1
:101DA0000E94DC14A70196010E943D150E94FC16BA
:101DB000F40171836083C8018D5F974F4C016F8977
:101DC000788D90E080E00E94DC14A70196010E94CB
:101DD0003D150E94FC16F40171836083C801815F88
:101DE000984F4C01698D7A8D90E080E00E94DC1460
:101DF000A70196010E943D150E94FC16F401718313
:101E00006083C801855E994F4C0169857A8590E0B1
:101E100080E00E94DC14A70196010E943D150E94FB
:101E2000FC16F40171836083C801895D9A4F4C01EF
:101E30006B857C8590E080E00E94DC14A701960110
:101E40000E943D150E94FC16F401718360830D5CB5
:101E50001B4F6D857E8590E080E00E94DC14A70119
:101E600096010E943D150E94FC16F8017183608363
:101E70006EEE72E080E090E00E94E80380E79DE073
:101E80000E94BF02C50101969093C80C8093C70CB5
:101E90000E941406C659DF4F0FB6F894DEBF0FBE7E
:101EA000CDBFDF91CF911F910F91FF90EF90DF9009
:101EB000CF90BF90AF909F908F907F906F905F90EA
:101EC0004F903F902F90089585ED8093BC008091B6
:101ED0004A0D90914B0DA0914C0DB0914D0D079670
:101EE000A11DB11D23E0B695A795979587952A95D5
:101EF000D1F72091BC0024FD03C01092480D089535
:101F000040914A0D50914B0D60914C0D70914D0DCB
:101F1000452B462B472B69F30097A105B10541F0EE
:101F20002AE22A95F1F700C00197A109B109E1CF92
:101F30008091490D0C941B041F920F920FB60F92C3
:101F400011240BB60F922F933F934F935F936F9390
:101F50007F938F939F93AF93BF93EF93FF9380E70C
:101F60009DE00E943002FF91EF91BF91AF919F9150
:101F70008F917F916F915F914F913F912F910F9032
:101F80000BBE0F900FBE0F901F9018951F920F92CF
:101F90000FB60F9211240BB60F922F933F934F93CE
:101FA0005F936F937F938F939F93AF93BF93EF93C1
:101FB000FF9380E79DE00E94BC01FF91EF91BF91EC
:101FC000AF919F918F917F916F915F914F913F91D1
:101FD0002F910F900BBE0F900FBE0F901F90189572
:101FE0001F920F920FB60F9211240BB60F922F93E0
:101FF0003F934F935F936F937F938F939F93AF9391
:10200000BF93EF93FF938DE09EE00E943002FF911B
:10201000EF91BF91AF919F918F917F916F915F9160
:102020004F913F912F910F900BBE0F900FBE0F90CD
:102030001F9018951F920F920FB60F9211240BB696
:102040000F922F933F934F935F936F937F938F9351
:102050009F93AF93BF93EF93FF938DE09EE00E9419
:10206000BC01FF91EF91BF91AF919F918F917F91B3
:102070006F915F914F913F912F910F900BBE0F90F9
:102080000FBE0F901F9018951F920F920FB60F92D0
:1020900011240BB60F922F933F934F935F936F933F
:1020A0007F938F939F93AF93BF93EF93FF938AEAAE
:1020B0009EE00E943002FF91EF91BF91AF919F91FE
:1020C0008F917F916F915F914F913F912F910F90E1
:1020D0000BBE0F900FBE0F901F9018951F920F927E
:1020E0000FB60F9211240BB60F922F933F934F937D
:1020F0005F936F937F938F939F93AF93BF93EF9370
:10210000FF938AEA9EE00E94BC01FF91EF91BF918C
:10211000AF919F918F917F916F915F914F913F917F
:102120002F910F900BBE0F900FBE0F901F90189520
:102130001F920F920FB60F9211242F933F938F93FC
:102140009F93AF93BF9380911E0D90911F0DA0910F
:10215000200DB091210D30910D0D23E0230F2D376F
:1021600058F50196A11DB11D20930D0D80931E0DF4
:1021700090931F0DA093200DB093210D80910E0D13
:1021800090910F0DA091100DB091110D0196A11D10
:10219000B11D80930E0D90930F0DA093100DB09371
:1021A000110DBF91AF919F918F913F912F910F9002
:1021B0000FBE0F901F90189526E8230F0296A11DC1
:1021C000B11DD2CF1F920F920FB60F9211240BB6F2
:1021D0000F922F933F934F935F936F937F938F93C0
:1021E0009F93AF93BF93EF93FF938091B900887F44
:1021F000803609F44DC008F040C0883209F4A7C009
:1022000028F5803109F49BC0C8F4882309F4F7C08D
:10221000883009F494C0FF91EF91BF91AF919F91E5
:102220008F917F916F915F914F913F912F910F907F
:102230000BBE0F900FBE0F901F901895883109F4B8
:1022400086C0803241F78093460D14C0803409F473
:102250009BC040F48033B9F38833E9F68093460D90
:1022600085ECAEC0803509F483C0883509F494C08C
:10227000883489F60E94640FCECF883909F48AC069
:1022800038F5883729F050F4883611F0803719F680
:1022900083E08093480D10920C0D55C0883809F4E6
:1022A00079C0803919F0803809F0B5CF80910C0DD4
:1022B000803208F06FC0E0910C0D81E08E0F8093AA
:1022C0000C0D8091BB00F0E0E451F34F80833BC0E4
:1022D000803B39F0D0F4803A09F477C0883A09F0AD
:1022E0009ACF84E08093480D1092EB0C1092EA0C88
:1022F000F0E0E0E019958091EA0C81110FC081E0D7
:102300008093EA0C1092CA0C09C0803C09F4A8CF53
:10231000883C09F4A5CF883B09F07DCFE091EB0C18
:1023200081E08E0F8093EB0CF0E0E653F34F808159
:102330008093BB009091EB0C8091EA0C29C08091B6
:10234000430D8093BB0085EC8093BC0064CF9091DB
:10235000450D8091440D981758F5E091450D81E0A9
:102360008E0F8093450DF0E0EE5DF24F8081E9CF56
:10237000E091450D81E08E0F8093450D8091BB006B
:10238000F0E0EE5DF24F80839091450D8091440D19
:102390009817C8F285E8D8CFE091450D81E08E0FFF
:1023A0008093450D8091BB00F0E0EE5DF24F80839D
:1023B0008091470D81115ECF81E08093420D84EAC8
:1023C0008093BC001092480D26CF85EC8093BC0012
:1023D0001092480D80910C0D803230F4E0910C0D7C
:1023E000F0E0E451F34F108260910C0D70E08CEE40
:1023F0009CE0F0E0E0E0199510920C0D0CCF1092EB
:10240000460D38CFCF92DF92EF92FF920F931F933A
:10241000E82FF92F05C0015011092109310961F197
:10242000908196239417B9F305C001501109210931
:10243000310911F1908196239413F7CFC12CD12C3F
:10244000E12CF12C0AC08FEFC81AD80AE80AF80A62
:102450000C151D052E053F0579F080818623841714
:1024600091F36C2D7D2D8E2D9F2D1F910F91FF903F
:10247000EF90DF90CF90089560E070E080E090E012
:102480001F910F91FF90EF90DF90CF900895CF9222
:10249000DF92EF92FF920F931F93CF93DF93EC01A4
:1024A0008C0106581F4FC12CD12C7601699179916E
:1024B000072E000C880B990B0E94DE149B01AC01C7
:1024C000C701B6010E941E166B017C010C171D0787
:1024D00069F720E030E044E752E40E948A16DF9179
:1024E000CF911F910F91FF90EF90DF90CF900895C3
:1024F0000C94CA0442E00C9429058F929F92AF92EB
:10250000BF92CF92DF92EF92FF920F931F93CF93E0
:10251000DF934A015B01EC018C0106581F4FC12C6F
:10252000D12C760169917991072E000C880B990BBB
:102530000E94DE14A50194010E941D169B01AC01AE
:102540000E943D159B01AC01C701B6010E941E16F9
:102550006B017C010C171D0729F720E030E044E7F0
:1025600052E40E948A16DF91CF911F910F91FF9044
:10257000EF90DF90CF90BF90AF909F908F900C9492
:102580003D17E0E7FDE01382128248EE53E060E081
:1025900070E044835583668377838CE092E0918377
:1025A000808325ED30E03587248724ED30E03787C0
:1025B000268720ED30E0318B208B21ED30E0338B0E
:1025C000228B22ED30E0358B248B26ED30E0378BEB
:1025D000268B118E128E138E148EEDE0FEE0138288
:1025E00012824483558366837783918380832DECA5
:1025F00030E0358724872CEC30E03787268728ECBD
:1026000030E0318B208B29EC30E0338B228B2AECAD
:1026100030E0358B248B2EEC30E0378B268B118EFF
:10262000128E138E148EEAEAFEE013821282448325
:102630005583668377839183808385EC90E09587CB
:10264000848784EC90E09787868780EC90E0918B7C
:10265000808B81EC90E0938B828B82EC90E0958B69
:10266000848B86EC90E0978B868B118E128E138E66
:10267000148EE7E4FFE01182108213821282089523
:10268000789484B5826084BD84B5816084BD85B54D
:10269000826085BD85B5816085BD80916E00816059
:1026A00080936E00109281008091810082608093FF
:1026B0008100809181008160809381008091800001
:1026C0008160809380008091B10084608093B1002C
:1026D0008091B00081608093B00080919100826011
:1026E000809391008091910081608093910080910E
:1026F00090008160809390008091A100826080931F
:10270000A1008091A10081608093A1008091A00030
:1027100081608093A00080912101826080932101DB
:10272000809121018160809321018091200181604D
:102730008093200180917A00846080937A00809158
:102740007A00826080937A0080917A008160809321
:102750007A0080917A00806880937A001092C1009C
:102760008AEA9EE00E94680161E088E00E9492038C
:1027700060E089E00E94920383E293E00E941B05DF
:1027800084EF91E00E94140685E090E00E94140618
:102790006AE077ED83EA9CE30E94050683E293E01A
:1027A0000E941B05CFE0D0E043E2E42EF12C5BE277
:1027B000C52E52E0D52E65EEA62E61E0B62E8FB75F
:1027C000F89440901E0D50901F0D6090200D709059
:1027D000210D8FBF60E088E00E940603CE010197C3
:1027E000F1F761E088E00E940603C7010197F1F765
:1027F00060E088E00E94060360E089E00E949203A6
:10280000F6016491F5018491E82FF0E0EE0FFF1FCF
:10281000EE53FE4F8591949100E412E42FE030E0F6
:10282000462F0E940212611571058105910529F05C
:102830006F5F7F4F8F4F9F4F9F70959587957795CF
:1028400067950E94DE1421E73DE34AE350E40E94CD
:102850008A160E94FC16685E734081099109693EE0
:1028600073408105910508F061C08091120D90912F
:10287000130D01969093130D8093120D03970CF492
:1028800059C087E293E00E941B051092130D10922D
:10289000120D40921A0D50921B0D60921C0D7092F9
:1028A0001D0D1092190D1092180D1092170D109207
:1028B000160D1092150D1092140D64EF71E080E06A
:1028C00090E00E94E80380911A0D90911B0DA09159
:1028D0001C0DB0911D0DA3019201281B390B4A0B51
:1028E0005B0BDA01C9018C383AE09307A105B10509
:1028F000D0F02091180D3091190D12161306FCF02E
:102900000E94CB088091180D9091190D019690931B
:10291000190D8093180D40921A0D50921B0D609264
:102920001C0D70921D0D0E94DD0249CF1092130DF7
:102930001092120D62E370E080E090E0C2CF883622
:1029400042E49407A105B10570F32091160D309172
:10295000170D2630310564F40E94CB088091160DC6
:102960009091170D01969093170D8093160DD3CF6C
:1029700084359F46A105B105B0F28091140D909168
:10298000150D01969093150D8093140D40921A0D1C
:1029900050921B0D60921C0D70921D0D029719F63E
:1029A0000E94CB081092150D1092140DB4CF0E9406
:1029B000191508F481E00895E89409C097FB3EF4E6
:1029C00090958095709561957F4F8F4F9F4F99237C
:1029D000A9F0F92F96E9BB279395F69587957795FA
:1029E0006795B795F111F8CFFAF4BB0F11F460FFBA
:1029F0001BC06F5F7F4F8F4F9F4F16C0882311F012
:102A000096E911C0772321F09EE8872F762F05C025
:102A1000662371F096E8862F70E060E02AF09A95C0
:102A2000660F771F881FDAF7880F9695879597F9B5
:102A30000895990F0008550FAA0BE0E8FEEF16164F
:102A40001706E807F907C0F012161306E407F507A2
:102A500098F0621B730B840B950B39F40A2661F016
:102A6000232B242B252B21F408950A2609F4A140B9
:102A7000A6958FEF811D811D08950E9450150C941D
:102A8000C1150E94B31538F00E94BA1520F09523A5
:102A900011F00C94AA150C94B01511240C94F51592
:102AA0000E94D21570F3959FC1F3950F50E0551F0A
:102AB000629FF001729FBB27F00DB11D639FAA2793
:102AC000F00DB11DAA1F649F6627B00DA11D661FE2
:102AD000829F2227B00DA11D621F739FB00DA11D03
:102AE000621F839FA00D611D221F749F3327A00DBD
:102AF000611D231F849F600D211D822F762F6A2F59
:102B000011249F5750409AF0F1F088234AF0EE0FBD
:102B1000FF1FBB1F661F771F881F91505040A9F7EA
:102B20009E3F510580F00C94AA150C94F5155F3F5B
:102B3000E4F3983ED4F3869577956795B795F79526
:102B4000E7959F5FC1F7FE2B880F911D969587959E
:102B500097F9089597F99F6780E870E060E008951D
:102B60009FEF80EC089500240A94161617061806A5
:102B70000906089500240A94121613061406050681
:102B80000895092E0394000C11F4882352F0BB0F12
:102B900040F4BF2B11F460FF04C06F5F7F4F8F4F75
:102BA0009F4F089557FD9058440F551F59F05F3FB0
:102BB00071F04795880F97FB991F61F09F3F79F05F
:102BC00087950895121613061406551FF2CF4695E1
:102BD000F1DF08C0161617061806991FF1CF869563
:102BE0007105610508940895E894BB276627772747
:102BF000CB0197F90895A1E21A2EAA1BBB1BFD0178
:102C00000DC0AA1FBB1FEE1FFF1FA217B307E407CB
:102C1000F50720F0A21BB30BE40BF50B661F771F23
:102C2000881F991F1A9469F7609570958095909503
:102C30009B01AC01BD01CF0108955058BB27AA27C5
:102C40000E9435160C94C1150E94B31538F00E94ED
:102C5000BA1520F039F49F3F19F426F40C94B015FE
:102C60000EF4E095E7FB0C94AA15E92F0E94D2150B
:102C700058F3BA17620773078407950720F079F4B1
:102C8000A6F50C94F4150EF4E0950B2EBA2FA02D9A
:102C90000B01B90190010C01CA01A0011124FF2709
:102CA000591B99F0593F50F4503E68F11A16F04004
:102CB000A22F232F342F4427585FF3CF4695379503
:102CC0002795A795F0405395C9F77EF41F16BA0BC8
:102CD000620B730B840BBAF09150A1F0FF0FBB1F76
:102CE000661F771F881FC2F70EC0BA0F621F731FBF
:102CF000841F48F4879577956795B795F7959E3F1C
:102D000008F0B0CF9395880F08F09927EE0F9795AC
:102D1000879508950E949E160C94C1150E94BA15BD
:102D200058F00E94B31540F029F45F3F29F00C944D
:102D3000AA1551110C94F5150C94B0150E94D215DA
:102D400068F39923B1F3552391F3951B550BBB27DA
:102D5000AA2762177307840738F09F5F5F4F220F1F
:102D6000331F441FAA1FA9F335D00E2E3AF0E0E816
:102D700032D091505040E695001CCAF72BD0FE2F60
:102D800029D0660F771F881FBB1F261737074807F4
:102D9000AB07B0E809F0BB0B802DBF01FF279358AC
:102DA0005F4F3AF09E3F510578F00C94AA150C94B1
:102DB000F5155F3FE4F3983ED4F3869577956795D4
:102DC000B795F7959F5FC9F7880F911D96958795E1
:102DD00097F90895E1E0660F771F881FBB1F621700
:102DE00073078407BA0720F0621B730B840BBA0BBE
:102DF000EE1F88F7E09508950E9403176894B111BB
:102E00000C94F51508950E94DA1588F09F5798F0F4
:102E1000B92F9927B751B0F0E1F0660F771F881FDF
:102E2000991F1AF0BA95C9F714C0B13091F00E94F9
:102E3000F415B1E008950C94F415672F782F8827C6
:102E4000B85F39F0B93FCCF3869577956795B39520
:102E5000D9F73EF490958095709561957F4F8F4F8F
:102E60009F4F08950E94191508F48FEF089519F4E3
:102E700016F40C94B0150C9482170E94DA15B8F36E
:102E80009923C9F3B6F39F57550B87FF0E949017FC
:102E90000024A0E640EA900180585695979528F4C2
:102EA000805C660F771F881F20F0261737074807BA
:102EB00030F4621B730B840B202931294A2BA69511
:102EC00017940794202531254A2758F7660F771F56
:102ED000881F20F026173707480730F4620B730B62
:102EE000840B200D311D411DA09581F7B901842F60
:102EF0009158880F9695879508950E941915880B0B
:102F0000990B08959F3F31F0915020F48795779564
:102F10006795B795880F911D9695879597F90895B0
:102F200091505040660F771F881FD2F70895EE0F1B
:102F3000FF1F881F8BBF0790F691E02D1994F8941E
:022F4000FFCFC1
:102F42000000803F0000803F0000000052028F011D
:102F5200D5019F020602E401F8010D0A006E616EBE
:102F620000696E66006F76660054696D6520746F45
:102F7200207265706C6163652073656E736F720099
:102F820053656E736F72732063616C6962726174F0
:102F9200656400416C6C2073656E736F7273206799
:102FA2006F6F640053756D6D6172793A00302E3324
:102FB200756D2F302E314C3A20003B2000302E35DB
:102FC200756D2F302E314C3A2000312E30756D2F19
:102FD200302E314C3A2000322E35756D2F302E3185
:102FE2004C3A2000352E30756D2F302E314C3A2060
:102FF200003130756D2F302E314C3A2000504D206B
:10300200312E303A2000504D20322E353A200050D9
:103012004D2031303A200054656D706572617475CF
:1030220072653A200048756D69646974793A2000C6
:10303200504D53353030332073656E736F722031CB
:1030420000504D64617461206E6F7420666F756EFE
:103052006400504D53353030332073656E736F7298
:103062002032002A2A2A006175746F4465746563F0
:023072007400E8
:00000001FF
